{
  "contracts/SimpleSwap.sol": {
    "SimpleSwap": {
      "abi": [
        {
          "inputs": [
            {
              "internalType": "address",
              "name": "_tokenA",
              "type": "address"
            },
            {
              "internalType": "address",
              "name": "_tokenB",
              "type": "address"
            }
          ],
          "stateMutability": "nonpayable",
          "type": "constructor"
        },
        {
          "inputs": [
            {
              "internalType": "address",
              "name": "spender",
              "type": "address"
            },
            {
              "internalType": "uint256",
              "name": "allowance",
              "type": "uint256"
            },
            {
              "internalType": "uint256",
              "name": "needed",
              "type": "uint256"
            }
          ],
          "name": "ERC20InsufficientAllowance",
          "type": "error"
        },
        {
          "inputs": [
            {
              "internalType": "address",
              "name": "sender",
              "type": "address"
            },
            {
              "internalType": "uint256",
              "name": "balance",
              "type": "uint256"
            },
            {
              "internalType": "uint256",
              "name": "needed",
              "type": "uint256"
            }
          ],
          "name": "ERC20InsufficientBalance",
          "type": "error"
        },
        {
          "inputs": [
            {
              "internalType": "address",
              "name": "approver",
              "type": "address"
            }
          ],
          "name": "ERC20InvalidApprover",
          "type": "error"
        },
        {
          "inputs": [
            {
              "internalType": "address",
              "name": "receiver",
              "type": "address"
            }
          ],
          "name": "ERC20InvalidReceiver",
          "type": "error"
        },
        {
          "inputs": [
            {
              "internalType": "address",
              "name": "sender",
              "type": "address"
            }
          ],
          "name": "ERC20InvalidSender",
          "type": "error"
        },
        {
          "inputs": [
            {
              "internalType": "address",
              "name": "spender",
              "type": "address"
            }
          ],
          "name": "ERC20InvalidSpender",
          "type": "error"
        },
        {
          "anonymous": false,
          "inputs": [
            {
              "indexed": true,
              "internalType": "address",
              "name": "owner",
              "type": "address"
            },
            {
              "indexed": true,
              "internalType": "address",
              "name": "spender",
              "type": "address"
            },
            {
              "indexed": false,
              "internalType": "uint256",
              "name": "value",
              "type": "uint256"
            }
          ],
          "name": "Approval",
          "type": "event"
        },
        {
          "anonymous": false,
          "inputs": [
            {
              "indexed": true,
              "internalType": "address",
              "name": "tokenA",
              "type": "address"
            },
            {
              "indexed": true,
              "internalType": "address",
              "name": "tokenB",
              "type": "address"
            },
            {
              "indexed": false,
              "internalType": "uint256",
              "name": "amountA",
              "type": "uint256"
            },
            {
              "indexed": false,
              "internalType": "uint256",
              "name": "amountB",
              "type": "uint256"
            },
            {
              "indexed": false,
              "internalType": "uint256",
              "name": "liquidity",
              "type": "uint256"
            }
          ],
          "name": "LiquidityAdded",
          "type": "event"
        },
        {
          "anonymous": false,
          "inputs": [
            {
              "indexed": true,
              "internalType": "address",
              "name": "tokenA",
              "type": "address"
            },
            {
              "indexed": true,
              "internalType": "address",
              "name": "tokenB",
              "type": "address"
            },
            {
              "indexed": false,
              "internalType": "uint256",
              "name": "amountA",
              "type": "uint256"
            },
            {
              "indexed": false,
              "internalType": "uint256",
              "name": "amountB",
              "type": "uint256"
            },
            {
              "indexed": false,
              "internalType": "uint256",
              "name": "liquidity",
              "type": "uint256"
            }
          ],
          "name": "LiquidityRemoved",
          "type": "event"
        },
        {
          "anonymous": false,
          "inputs": [
            {
              "indexed": true,
              "internalType": "address",
              "name": "tokenA",
              "type": "address"
            },
            {
              "indexed": true,
              "internalType": "address",
              "name": "tokenB",
              "type": "address"
            },
            {
              "indexed": false,
              "internalType": "address",
              "name": "pair",
              "type": "address"
            }
          ],
          "name": "PairCreated",
          "type": "event"
        },
        {
          "anonymous": false,
          "inputs": [
            {
              "indexed": true,
              "internalType": "address",
              "name": "tokenIn",
              "type": "address"
            },
            {
              "indexed": true,
              "internalType": "address",
              "name": "tokenOut",
              "type": "address"
            },
            {
              "indexed": false,
              "internalType": "uint256",
              "name": "amountIn",
              "type": "uint256"
            },
            {
              "indexed": false,
              "internalType": "uint256",
              "name": "amountOut",
              "type": "uint256"
            }
          ],
          "name": "Swap",
          "type": "event"
        },
        {
          "anonymous": false,
          "inputs": [
            {
              "indexed": true,
              "internalType": "address",
              "name": "from",
              "type": "address"
            },
            {
              "indexed": true,
              "internalType": "address",
              "name": "to",
              "type": "address"
            },
            {
              "indexed": false,
              "internalType": "uint256",
              "name": "value",
              "type": "uint256"
            }
          ],
          "name": "Transfer",
          "type": "event"
        },
        {
          "inputs": [
            {
              "internalType": "address",
              "name": "_tokenA",
              "type": "address"
            },
            {
              "internalType": "address",
              "name": "_tokenB",
              "type": "address"
            },
            {
              "internalType": "uint256",
              "name": "amountADesired",
              "type": "uint256"
            },
            {
              "internalType": "uint256",
              "name": "amountBDesired",
              "type": "uint256"
            },
            {
              "internalType": "uint256",
              "name": "amountAMin",
              "type": "uint256"
            },
            {
              "internalType": "uint256",
              "name": "amountBMin",
              "type": "uint256"
            },
            {
              "internalType": "address",
              "name": "to",
              "type": "address"
            },
            {
              "internalType": "uint256",
              "name": "deadline",
              "type": "uint256"
            }
          ],
          "name": "addLiquidity",
          "outputs": [
            {
              "internalType": "uint256",
              "name": "amountA",
              "type": "uint256"
            },
            {
              "internalType": "uint256",
              "name": "amountB",
              "type": "uint256"
            },
            {
              "internalType": "uint256",
              "name": "liquidity",
              "type": "uint256"
            }
          ],
          "stateMutability": "nonpayable",
          "type": "function"
        },
        {
          "inputs": [
            {
              "internalType": "address",
              "name": "owner",
              "type": "address"
            },
            {
              "internalType": "address",
              "name": "spender",
              "type": "address"
            }
          ],
          "name": "allowance",
          "outputs": [
            {
              "internalType": "uint256",
              "name": "",
              "type": "uint256"
            }
          ],
          "stateMutability": "view",
          "type": "function"
        },
        {
          "inputs": [
            {
              "internalType": "address",
              "name": "spender",
              "type": "address"
            },
            {
              "internalType": "uint256",
              "name": "value",
              "type": "uint256"
            }
          ],
          "name": "approve",
          "outputs": [
            {
              "internalType": "bool",
              "name": "",
              "type": "bool"
            }
          ],
          "stateMutability": "nonpayable",
          "type": "function"
        },
        {
          "inputs": [
            {
              "internalType": "address",
              "name": "account",
              "type": "address"
            }
          ],
          "name": "balanceOf",
          "outputs": [
            {
              "internalType": "uint256",
              "name": "",
              "type": "uint256"
            }
          ],
          "stateMutability": "view",
          "type": "function"
        },
        {
          "inputs": [],
          "name": "decimals",
          "outputs": [
            {
              "internalType": "uint8",
              "name": "",
              "type": "uint8"
            }
          ],
          "stateMutability": "view",
          "type": "function"
        },
        {
          "inputs": [
            {
              "internalType": "uint256",
              "name": "amountIn",
              "type": "uint256"
            },
            {
              "internalType": "uint256",
              "name": "reserveIn",
              "type": "uint256"
            },
            {
              "internalType": "uint256",
              "name": "reserveOut",
              "type": "uint256"
            }
          ],
          "name": "getAmountOut",
          "outputs": [
            {
              "internalType": "uint256",
              "name": "amountOut",
              "type": "uint256"
            }
          ],
          "stateMutability": "pure",
          "type": "function"
        },
        {
          "inputs": [
            {
              "internalType": "address",
              "name": "_tokenA",
              "type": "address"
            },
            {
              "internalType": "address",
              "name": "_tokenB",
              "type": "address"
            }
          ],
          "name": "getPrice",
          "outputs": [
            {
              "internalType": "uint256",
              "name": "price",
              "type": "uint256"
            }
          ],
          "stateMutability": "view",
          "type": "function"
        },
        {
          "inputs": [
            {
              "internalType": "address",
              "name": "_tokenA",
              "type": "address"
            },
            {
              "internalType": "address",
              "name": "_tokenB",
              "type": "address"
            }
          ],
          "name": "getReserves",
          "outputs": [
            {
              "internalType": "uint256",
              "name": "_reserveA",
              "type": "uint256"
            },
            {
              "internalType": "uint256",
              "name": "_reserveB",
              "type": "uint256"
            }
          ],
          "stateMutability": "view",
          "type": "function"
        },
        {
          "inputs": [],
          "name": "name",
          "outputs": [
            {
              "internalType": "string",
              "name": "",
              "type": "string"
            }
          ],
          "stateMutability": "view",
          "type": "function"
        },
        {
          "inputs": [
            {
              "internalType": "address",
              "name": "_tokenA",
              "type": "address"
            },
            {
              "internalType": "address",
              "name": "_tokenB",
              "type": "address"
            },
            {
              "internalType": "uint256",
              "name": "liquidity",
              "type": "uint256"
            },
            {
              "internalType": "uint256",
              "name": "amountAMin",
              "type": "uint256"
            },
            {
              "internalType": "uint256",
              "name": "amountBMin",
              "type": "uint256"
            },
            {
              "internalType": "address",
              "name": "to",
              "type": "address"
            },
            {
              "internalType": "uint256",
              "name": "deadline",
              "type": "uint256"
            }
          ],
          "name": "removeLiquidity",
          "outputs": [
            {
              "internalType": "uint256",
              "name": "amountA",
              "type": "uint256"
            },
            {
              "internalType": "uint256",
              "name": "amountB",
              "type": "uint256"
            }
          ],
          "stateMutability": "nonpayable",
          "type": "function"
        },
        {
          "inputs": [
            {
              "internalType": "uint256",
              "name": "amountIn",
              "type": "uint256"
            },
            {
              "internalType": "uint256",
              "name": "amountOutMin",
              "type": "uint256"
            },
            {
              "internalType": "address[]",
              "name": "path",
              "type": "address[]"
            },
            {
              "internalType": "address",
              "name": "to",
              "type": "address"
            },
            {
              "internalType": "uint256",
              "name": "deadline",
              "type": "uint256"
            }
          ],
          "name": "swapExactTokensForTokens",
          "outputs": [
            {
              "internalType": "uint256[]",
              "name": "amounts",
              "type": "uint256[]"
            }
          ],
          "stateMutability": "nonpayable",
          "type": "function"
        },
        {
          "inputs": [],
          "name": "symbol",
          "outputs": [
            {
              "internalType": "string",
              "name": "",
              "type": "string"
            }
          ],
          "stateMutability": "view",
          "type": "function"
        },
        {
          "inputs": [],
          "name": "tokenA",
          "outputs": [
            {
              "internalType": "address",
              "name": "",
              "type": "address"
            }
          ],
          "stateMutability": "view",
          "type": "function"
        },
        {
          "inputs": [],
          "name": "tokenB",
          "outputs": [
            {
              "internalType": "address",
              "name": "",
              "type": "address"
            }
          ],
          "stateMutability": "view",
          "type": "function"
        },
        {
          "inputs": [],
          "name": "totalSupply",
          "outputs": [
            {
              "internalType": "uint256",
              "name": "",
              "type": "uint256"
            }
          ],
          "stateMutability": "view",
          "type": "function"
        },
        {
          "inputs": [
            {
              "internalType": "address",
              "name": "to",
              "type": "address"
            },
            {
              "internalType": "uint256",
              "name": "value",
              "type": "uint256"
            }
          ],
          "name": "transfer",
          "outputs": [
            {
              "internalType": "bool",
              "name": "",
              "type": "bool"
            }
          ],
          "stateMutability": "nonpayable",
          "type": "function"
        },
        {
          "inputs": [
            {
              "internalType": "address",
              "name": "from",
              "type": "address"
            },
            {
              "internalType": "address",
              "name": "to",
              "type": "address"
            },
            {
              "internalType": "uint256",
              "name": "value",
              "type": "uint256"
            }
          ],
          "name": "transferFrom",
          "outputs": [
            {
              "internalType": "bool",
              "name": "",
              "type": "bool"
            }
          ],
          "stateMutability": "nonpayable",
          "type": "function"
        }
      ],
      "evm": {
        "bytecode": {
          "linkReferences": {},
          "object": "60c060405234801561001057600080fd5b50604051613e29380380613e29833981810160405281019061003291906103b4565b6040518060400160405280600981526020017f4c697175696469747900000000000000000000000000000000000000000000008152506040518060400160405280600381526020017f53574c000000000000000000000000000000000000000000000000000000000081525081600390816100ad9190610644565b5080600490816100bd9190610644565b505050600073ffffffffffffffffffffffffffffffffffffffff168273ffffffffffffffffffffffffffffffffffffffff161415801561012a5750600073ffffffffffffffffffffffffffffffffffffffff168173ffffffffffffffffffffffffffffffffffffffff1614155b610169576040517f08c379a000000000000000000000000000000000000000000000000000000000815260040161016090610773565b60405180910390fd5b8073ffffffffffffffffffffffffffffffffffffffff168273ffffffffffffffffffffffffffffffffffffffff16036101d7576040517f08c379a00000000000000000000000000000000000000000000000000000000081526004016101ce906107df565b60405180910390fd5b8073ffffffffffffffffffffffffffffffffffffffff168273ffffffffffffffffffffffffffffffffffffffff161015610278578173ffffffffffffffffffffffffffffffffffffffff1660808173ffffffffffffffffffffffffffffffffffffffff16815250508073ffffffffffffffffffffffffffffffffffffffff1660a08173ffffffffffffffffffffffffffffffffffffffff16815250506102e1565b8073ffffffffffffffffffffffffffffffffffffffff1660808173ffffffffffffffffffffffffffffffffffffffff16815250508173ffffffffffffffffffffffffffffffffffffffff1660a08173ffffffffffffffffffffffffffffffffffffffff16815250505b60a05173ffffffffffffffffffffffffffffffffffffffff1660805173ffffffffffffffffffffffffffffffffffffffff167fa92a2b95c8d8436f6ac4c673c61487364f877efb9534d4296fad8ef904546c9430604051610342919061080e565b60405180910390a35050610829565b600080fd5b600073ffffffffffffffffffffffffffffffffffffffff82169050919050565b600061038182610356565b9050919050565b61039181610376565b811461039c57600080fd5b50565b6000815190506103ae81610388565b92915050565b600080604083850312156103cb576103ca610351565b5b60006103d98582860161039f565b92505060206103ea8582860161039f565b9150509250929050565b600081519050919050565b7f4e487b7100000000000000000000000000000000000000000000000000000000600052604160045260246000fd5b7f4e487b7100000000000000000000000000000000000000000000000000000000600052602260045260246000fd5b6000600282049050600182168061047557607f821691505b6020821081036104885761048761042e565b5b50919050565b60008190508160005260206000209050919050565b60006020601f8301049050919050565b600082821b905092915050565b6000600883026104f07fffffffffffffffffffffffffffffffffffffffffffffffffffffffffffffffff826104b3565b6104fa86836104b3565b95508019841693508086168417925050509392505050565b6000819050919050565b6000819050919050565b600061054161053c61053784610512565b61051c565b610512565b9050919050565b6000819050919050565b61055b83610526565b61056f61056782610548565b8484546104c0565b825550505050565b600090565b610584610577565b61058f818484610552565b505050565b5b818110156105b3576105a860008261057c565b600181019050610595565b5050565b601f8211156105f8576105c98161048e565b6105d2846104a3565b810160208510156105e1578190505b6105f56105ed856104a3565b830182610594565b50505b505050565b600082821c905092915050565b600061061b600019846008026105fd565b1980831691505092915050565b6000610634838361060a565b9150826002028217905092915050565b61064d826103f4565b67ffffffffffffffff811115610666576106656103ff565b5b610670825461045d565b61067b8282856105b7565b600060209050601f8311600181146106ae576000841561069c578287015190505b6106a68582610628565b86555061070e565b601f1984166106bc8661048e565b60005b828110156106e4578489015182556001820191506020850194506020810190506106bf565b8683101561070157848901516106fd601f89168261060a565b8355505b6001600288020188555050505b505050505050565b600082825260208201905092915050565b7f5a45524f5f414444524553530000000000000000000000000000000000000000600082015250565b600061075d600c83610716565b915061076882610727565b602082019050919050565b6000602082019050818103600083015261078c81610750565b9050919050565b7f4944454e544943414c5f41444452000000000000000000000000000000000000600082015250565b60006107c9600e83610716565b91506107d482610793565b602082019050919050565b600060208201905081810360008301526107f8816107bc565b9050919050565b61080881610376565b82525050565b600060208201905061082360008301846107ff565b92915050565b60805160a0516134f4610935600039600081816106c90152818161074701528181610c8801528181610e0101528181610e57015281816110d60152818161112c01528181611413015281816114b2015281816115c20152818161161801528181611898015281816118ee01528181611c0c0152611d980152600081816105590152818161064b015281816107c5015281816108ec01528181610dab01528181610ead01528181610f9001528181611080015281816111820152818161121201528181611374015281816114e90152818161156c0152818161166e015281816116fe0152818161184201528181611944015281816119d401528181611b6b0152611dcf01526134f46000f3fe608060405234801561001057600080fd5b506004361061010b5760003560e01c80635f64b55b116100a2578063ac41865a11610071578063ac41865a146102e4578063baa2abde14610314578063d52bb6f414610345578063dd62ed3e14610376578063e8e33700146103a65761010b565b80635f64b55b1461024857806370a082311461026657806395d89b4114610296578063a9059cbb146102b45761010b565b806318160ddd116100de57806318160ddd146101ac57806323b872dd146101ca578063313ce567146101fa57806338ed1739146102185761010b565b8063054d50d41461011057806306fdde0314610140578063095ea7b31461015e5780630fc63d101461018e575b600080fd5b61012a60048036038101906101259190612678565b6103d8565b60405161013791906126da565b60405180910390f35b6101486104a2565b6040516101559190612785565b60405180910390f35b61017860048036038101906101739190612805565b610534565b6040516101859190612860565b60405180910390f35b610196610557565b6040516101a3919061288a565b60405180910390f35b6101b461057b565b6040516101c191906126da565b60405180910390f35b6101e460048036038101906101df91906128a5565b610585565b6040516101f19190612860565b60405180910390f35b6102026105b4565b60405161020f9190612914565b60405180910390f35b610232600480360381019061022d9190612994565b6105bd565b60405161023f9190612aec565b60405180910390f35b610250610c86565b60405161025d919061288a565b60405180910390f35b610280600480360381019061027b9190612b0e565b610caa565b60405161028d91906126da565b60405180910390f35b61029e610cf2565b6040516102ab9190612785565b60405180910390f35b6102ce60048036038101906102c99190612805565b610d84565b6040516102db9190612860565b60405180910390f35b6102fe60048036038101906102f99190612b3b565b610da7565b60405161030b91906126da565b60405180910390f35b61032e60048036038101906103299190612b7b565b611037565b60405161033c929190612c1d565b60405180910390f35b61035f600480360381019061035a9190612b3b565b611567565b60405161036d929190612c1d565b60405180910390f35b610390600480360381019061038b9190612b3b565b611770565b60405161039d91906126da565b60405180910390f35b6103c060048036038101906103bb9190612c46565b6117f7565b6040516103cf93929190612cfc565b60405180910390f35b600080841161041c576040517f08c379a000000000000000000000000000000000000000000000000000000000815260040161041390612d7f565b60405180910390fd5b60008311801561042c5750600082115b61046b576040517f08c379a000000000000000000000000000000000000000000000000000000000815260040161046290612deb565b60405180910390fd5b600082856104799190612e3a565b9050600085856104899190612e7c565b905080826104979190612edf565b925050509392505050565b6060600380546104b190612f3f565b80601f01602080910402602001604051908101604052809291908181526020018280546104dd90612f3f565b801561052a5780601f106104ff5761010080835404028352916020019161052a565b820191906000526020600020905b81548152906001019060200180831161050d57829003601f168201915b5050505050905090565b60008061053f611e4f565b905061054c818585611e57565b600191505092915050565b7f000000000000000000000000000000000000000000000000000000000000000081565b6000600254905090565b600080610590611e4f565b905061059d858285611e69565b6105a8858585611efe565b60019150509392505050565b60006012905090565b60608142811015610603576040517f08c379a00000000000000000000000000000000000000000000000000000000081526004016105fa90612fbc565b60405180910390fd5b60028686905014610649576040517f08c379a000000000000000000000000000000000000000000000000000000000815260040161064090613028565b60405180910390fd5b7f000000000000000000000000000000000000000000000000000000000000000073ffffffffffffffffffffffffffffffffffffffff168686600081811061069457610693613048565b5b90506020020160208101906106a99190612b0e565b73ffffffffffffffffffffffffffffffffffffffff1614801561073f57507f000000000000000000000000000000000000000000000000000000000000000073ffffffffffffffffffffffffffffffffffffffff168686600181811061071257610711613048565b5b90506020020160208101906107279190612b0e565b73ffffffffffffffffffffffffffffffffffffffff16145b8061083c57507f000000000000000000000000000000000000000000000000000000000000000073ffffffffffffffffffffffffffffffffffffffff16868660008181106107905761078f613048565b5b90506020020160208101906107a59190612b0e565b73ffffffffffffffffffffffffffffffffffffffff1614801561083b57507f000000000000000000000000000000000000000000000000000000000000000073ffffffffffffffffffffffffffffffffffffffff168686600181811061080e5761080d613048565b5b90506020020160208101906108239190612b0e565b73ffffffffffffffffffffffffffffffffffffffff16145b5b61087b576040517f08c379a0000000000000000000000000000000000000000000000000000000008152600401610872906130c3565b60405180910390fd5b600267ffffffffffffffff811115610896576108956130e3565b5b6040519080825280602002602001820160405280156108c45781602001602082028036833780820191505090505b50915087826000815181106108dc576108db613048565b5b60200260200101818152505060007f000000000000000000000000000000000000000000000000000000000000000073ffffffffffffffffffffffffffffffffffffffff168787600081811061093557610934613048565b5b905060200201602081019061094a9190612b0e565b73ffffffffffffffffffffffffffffffffffffffff1614905060008161097257600654610976565b6005545b90506000826109875760055461098b565b6006545b9050600061099a8c84846103d8565b905080866001815181106109b1576109b0613048565b5b6020026020010181815250508a811015610a00576040517f08c379a00000000000000000000000000000000000000000000000000000000081526004016109f79061315e565b60405180910390fd5b89896000818110610a1457610a13613048565b5b9050602002016020810190610a299190612b0e565b73ffffffffffffffffffffffffffffffffffffffff166323b872dd33308f6040518463ffffffff1660e01b8152600401610a659392919061317e565b6020604051808303816000875af1158015610a84573d6000803e3d6000fd5b505050506040513d601f19601f82011682018060405250810190610aa891906131e1565b508315610ae6578b60056000828254610ac19190612e7c565b925050819055508060066000828254610ada919061320e565b92505081905550610b19565b8b60066000828254610af89190612e7c565b925050819055508060056000828254610b11919061320e565b925050819055505b89896001818110610b2d57610b2c613048565b5b9050602002016020810190610b429190612b0e565b73ffffffffffffffffffffffffffffffffffffffff1663a9059cbb89836040518363ffffffff1660e01b8152600401610b7c929190613242565b6020604051808303816000875af1158015610b9b573d6000803e3d6000fd5b505050506040513d601f19601f82011682018060405250810190610bbf91906131e1565b5089896001818110610bd457610bd3613048565b5b9050602002016020810190610be99190612b0e565b73ffffffffffffffffffffffffffffffffffffffff168a8a6000818110610c1357610c12613048565b5b9050602002016020810190610c289190612b0e565b73ffffffffffffffffffffffffffffffffffffffff167ffa2dda1cc1b86e41239702756b13effbc1a092b5c57e3ad320fbe4f3b13fe2358e84604051610c6f929190612c1d565b60405180910390a350505050509695505050505050565b7f000000000000000000000000000000000000000000000000000000000000000081565b60008060008373ffffffffffffffffffffffffffffffffffffffff1673ffffffffffffffffffffffffffffffffffffffff168152602001908152602001600020549050919050565b606060048054610d0190612f3f565b80601f0160208091040260200160405190810160405280929190818152602001828054610d2d90612f3f565b8015610d7a5780601f10610d4f57610100808354040283529160200191610d7a565b820191906000526020600020905b815481529060010190602001808311610d5d57829003601f168201915b5050505050905090565b600080610d8f611e4f565b9050610d9c818585611efe565b600191505092915050565b60007f000000000000000000000000000000000000000000000000000000000000000073ffffffffffffffffffffffffffffffffffffffff168373ffffffffffffffffffffffffffffffffffffffff16148015610e4f57507f000000000000000000000000000000000000000000000000000000000000000073ffffffffffffffffffffffffffffffffffffffff168273ffffffffffffffffffffffffffffffffffffffff16145b80610efc57507f000000000000000000000000000000000000000000000000000000000000000073ffffffffffffffffffffffffffffffffffffffff168373ffffffffffffffffffffffffffffffffffffffff16148015610efb57507f000000000000000000000000000000000000000000000000000000000000000073ffffffffffffffffffffffffffffffffffffffff168273ffffffffffffffffffffffffffffffffffffffff16145b5b610f3b576040517f08c379a0000000000000000000000000000000000000000000000000000000008152600401610f32906132b7565b60405180910390fd5b6000600554118015610f4f57506000600654115b610f8e576040517f08c379a0000000000000000000000000000000000000000000000000000000008152600401610f8590612deb565b60405180910390fd5b7f000000000000000000000000000000000000000000000000000000000000000073ffffffffffffffffffffffffffffffffffffffff168373ffffffffffffffffffffffffffffffffffffffff160361100b57600554670de0b6b3a7640000600654610ffa9190612e3a565b6110049190612edf565b9050611031565b600654670de0b6b3a76400006005546110249190612e3a565b61102e9190612edf565b90505b92915050565b600080824281101561107e576040517f08c379a000000000000000000000000000000000000000000000000000000000815260040161107590612fbc565b60405180910390fd5b7f000000000000000000000000000000000000000000000000000000000000000073ffffffffffffffffffffffffffffffffffffffff168a73ffffffffffffffffffffffffffffffffffffffff1614801561112457507f000000000000000000000000000000000000000000000000000000000000000073ffffffffffffffffffffffffffffffffffffffff168973ffffffffffffffffffffffffffffffffffffffff16145b806111d157507f000000000000000000000000000000000000000000000000000000000000000073ffffffffffffffffffffffffffffffffffffffff168a73ffffffffffffffffffffffffffffffffffffffff161480156111d057507f000000000000000000000000000000000000000000000000000000000000000073ffffffffffffffffffffffffffffffffffffffff168973ffffffffffffffffffffffffffffffffffffffff16145b5b611210576040517f08c379a0000000000000000000000000000000000000000000000000000000008152600401611207906132b7565b60405180910390fd5b7f000000000000000000000000000000000000000000000000000000000000000073ffffffffffffffffffffffffffffffffffffffff168a73ffffffffffffffffffffffffffffffffffffffff161461126e57858780975081985050505b600061127861057b565b9050806005548a6112899190612e3a565b6112939190612edf565b9350806006548a6112a49190612e3a565b6112ae9190612edf565b9250878410156112f3576040517f08c379a00000000000000000000000000000000000000000000000000000000081526004016112ea90613323565b60405180910390fd5b86831015611336576040517f08c379a000000000000000000000000000000000000000000000000000000000815260040161132d9061338f565b60405180910390fd5b611340338a611ff2565b8360056000828254611352919061320e565b92505081905550826006600082825461136b919061320e565b925050819055507f000000000000000000000000000000000000000000000000000000000000000073ffffffffffffffffffffffffffffffffffffffff1663a9059cbb87866040518363ffffffff1660e01b81526004016113cd929190613242565b6020604051808303816000875af11580156113ec573d6000803e3d6000fd5b505050506040513d601f19601f8201168201806040525081019061141091906131e1565b507f000000000000000000000000000000000000000000000000000000000000000073ffffffffffffffffffffffffffffffffffffffff1663a9059cbb87856040518363ffffffff1660e01b815260040161146c929190613242565b6020604051808303816000875af115801561148b573d6000803e3d6000fd5b505050506040513d601f19601f820116820180604052508101906114af91906131e1565b507f000000000000000000000000000000000000000000000000000000000000000073ffffffffffffffffffffffffffffffffffffffff167f000000000000000000000000000000000000000000000000000000000000000073ffffffffffffffffffffffffffffffffffffffff167fbc7d19d505c7ec4db83f3b51f19fb98c4c8a99922e7839d1ee608dfbee29501b86868d60405161155193929190612cfc565b60405180910390a3505097509795505050505050565b6000807f000000000000000000000000000000000000000000000000000000000000000073ffffffffffffffffffffffffffffffffffffffff168473ffffffffffffffffffffffffffffffffffffffff1614801561161057507f000000000000000000000000000000000000000000000000000000000000000073ffffffffffffffffffffffffffffffffffffffff168373ffffffffffffffffffffffffffffffffffffffff16145b806116bd57507f000000000000000000000000000000000000000000000000000000000000000073ffffffffffffffffffffffffffffffffffffffff168473ffffffffffffffffffffffffffffffffffffffff161480156116bc57507f000000000000000000000000000000000000000000000000000000000000000073ffffffffffffffffffffffffffffffffffffffff168373ffffffffffffffffffffffffffffffffffffffff16145b5b6116fc576040517f08c379a00000000000000000000000000000000000000000000000000000000081526004016116f3906132b7565b60405180910390fd5b7f000000000000000000000000000000000000000000000000000000000000000073ffffffffffffffffffffffffffffffffffffffff168473ffffffffffffffffffffffffffffffffffffffff160361175e5760055460065491509150611769565b600654600554915091505b9250929050565b6000600160008473ffffffffffffffffffffffffffffffffffffffff1673ffffffffffffffffffffffffffffffffffffffff16815260200190815260200160002060008373ffffffffffffffffffffffffffffffffffffffff1673ffffffffffffffffffffffffffffffffffffffff16815260200190815260200160002054905092915050565b60008060008342811015611840576040517f08c379a000000000000000000000000000000000000000000000000000000000815260040161183790612fbc565b60405180910390fd5b7f000000000000000000000000000000000000000000000000000000000000000073ffffffffffffffffffffffffffffffffffffffff168c73ffffffffffffffffffffffffffffffffffffffff161480156118e657507f000000000000000000000000000000000000000000000000000000000000000073ffffffffffffffffffffffffffffffffffffffff168b73ffffffffffffffffffffffffffffffffffffffff16145b8061199357507f000000000000000000000000000000000000000000000000000000000000000073ffffffffffffffffffffffffffffffffffffffff168c73ffffffffffffffffffffffffffffffffffffffff1614801561199257507f000000000000000000000000000000000000000000000000000000000000000073ffffffffffffffffffffffffffffffffffffffff168b73ffffffffffffffffffffffffffffffffffffffff16145b5b6119d2576040517f08c379a00000000000000000000000000000000000000000000000000000000081526004016119c9906132b7565b60405180910390fd5b7f000000000000000000000000000000000000000000000000000000000000000073ffffffffffffffffffffffffffffffffffffffff168c73ffffffffffffffffffffffffffffffffffffffff1614611a3a57888a809a50819b505050868880985081995050505b6000600554148015611a4e57506000600654145b15611a5e57899350889250611b69565b6000611a6f8b600554600654612074565b9050898111611ac65787811015611abb576040517f08c379a0000000000000000000000000000000000000000000000000000000008152600401611ab29061338f565b60405180910390fd5b8a9450809350611b67565b6000611ad78b600654600554612074565b90508b811115611b1c576040517f08c379a0000000000000000000000000000000000000000000000000000000008152600401611b13906133fb565b60405180910390fd5b89811015611b5f576040517f08c379a0000000000000000000000000000000000000000000000000000000008152600401611b5690613323565b60405180910390fd5b8095508a9450505b505b7f000000000000000000000000000000000000000000000000000000000000000073ffffffffffffffffffffffffffffffffffffffff166323b872dd3330876040518463ffffffff1660e01b8152600401611bc69392919061317e565b6020604051808303816000875af1158015611be5573d6000803e3d6000fd5b505050506040513d601f19601f82011682018060405250810190611c0991906131e1565b507f000000000000000000000000000000000000000000000000000000000000000073ffffffffffffffffffffffffffffffffffffffff166323b872dd3330866040518463ffffffff1660e01b8152600401611c679392919061317e565b6020604051808303816000875af1158015611c86573d6000803e3d6000fd5b505050506040513d601f19601f82011682018060405250810190611caa91906131e1565b508360056000828254611cbd9190612e7c565b925050819055508260066000828254611cd69190612e7c565b925050819055506000611ce761057b565b905060008103611d0c57611d058486611d009190612e3a565b612127565b9250611d49565b611d466005548287611d1e9190612e3a565b611d289190612edf565b6006548387611d379190612e3a565b611d419190612edf565b6121a1565b92505b60008311611d8c576040517f08c379a0000000000000000000000000000000000000000000000000000000008152600401611d8390612deb565b60405180910390fd5b611d9687846121ba565b7f000000000000000000000000000000000000000000000000000000000000000073ffffffffffffffffffffffffffffffffffffffff167f000000000000000000000000000000000000000000000000000000000000000073ffffffffffffffffffffffffffffffffffffffff167f4a1a2a6176e9646d9e3157f7c2ab3c499f18337c0b0828cfb28e0a61de4a11f7878787604051611e3793929190612cfc565b60405180910390a35050985098509895505050505050565b600033905090565b611e64838383600161223c565b505050565b6000611e758484611770565b90507fffffffffffffffffffffffffffffffffffffffffffffffffffffffffffffffff811015611ef85781811015611ee8578281836040517ffb8f41b2000000000000000000000000000000000000000000000000000000008152600401611edf9392919061341b565b60405180910390fd5b611ef78484848403600061223c565b5b50505050565b600073ffffffffffffffffffffffffffffffffffffffff168373ffffffffffffffffffffffffffffffffffffffff1603611f705760006040517f96c6fd1e000000000000000000000000000000000000000000000000000000008152600401611f67919061288a565b60405180910390fd5b600073ffffffffffffffffffffffffffffffffffffffff168273ffffffffffffffffffffffffffffffffffffffff1603611fe25760006040517fec442f05000000000000000000000000000000000000000000000000000000008152600401611fd9919061288a565b60405180910390fd5b611fed838383612413565b505050565b600073ffffffffffffffffffffffffffffffffffffffff168273ffffffffffffffffffffffffffffffffffffffff16036120645760006040517f96c6fd1e00000000000000000000000000000000000000000000000000000000815260040161205b919061288a565b60405180910390fd5b61207082600083612413565b5050565b60008084116120b8576040517f08c379a00000000000000000000000000000000000000000000000000000000081526004016120af9061349e565b60405180910390fd5b6000831180156120c85750600082115b612107576040517f08c379a00000000000000000000000000000000000000000000000000000000081526004016120fe90612deb565b60405180910390fd5b8282856121149190612e3a565b61211e9190612edf565b90509392505050565b6000600382111561218e57819050600060016002846121469190612edf565b6121509190612e7c565b90505b8181101561218857809150600281828561216d9190612edf565b6121779190612e7c565b6121819190612edf565b9050612153565b5061219c565b6000821461219b57600190505b5b919050565b60008183106121b057816121b2565b825b905092915050565b600073ffffffffffffffffffffffffffffffffffffffff168273ffffffffffffffffffffffffffffffffffffffff160361222c5760006040517fec442f05000000000000000000000000000000000000000000000000000000008152600401612223919061288a565b60405180910390fd5b61223860008383612413565b5050565b600073ffffffffffffffffffffffffffffffffffffffff168473ffffffffffffffffffffffffffffffffffffffff16036122ae5760006040517fe602df050000000000000000000000000000000000000000000000000000000081526004016122a5919061288a565b60405180910390fd5b600073ffffffffffffffffffffffffffffffffffffffff168373ffffffffffffffffffffffffffffffffffffffff16036123205760006040517f94280d62000000000000000000000000000000000000000000000000000000008152600401612317919061288a565b60405180910390fd5b81600160008673ffffffffffffffffffffffffffffffffffffffff1673ffffffffffffffffffffffffffffffffffffffff16815260200190815260200160002060008573ffffffffffffffffffffffffffffffffffffffff1673ffffffffffffffffffffffffffffffffffffffff16815260200190815260200160002081905550801561240d578273ffffffffffffffffffffffffffffffffffffffff168473ffffffffffffffffffffffffffffffffffffffff167f8c5be1e5ebec7d5bd14f71427d1e84f3dd0314c0f7b2291e5b200ac8c7c3b9258460405161240491906126da565b60405180910390a35b50505050565b600073ffffffffffffffffffffffffffffffffffffffff168373ffffffffffffffffffffffffffffffffffffffff16036124655780600260008282546124599190612e7c565b92505081905550612538565b60008060008573ffffffffffffffffffffffffffffffffffffffff1673ffffffffffffffffffffffffffffffffffffffff168152602001908152602001600020549050818110156124f1578381836040517fe450d38c0000000000000000000000000000000000000000000000000000000081526004016124e89392919061341b565b60405180910390fd5b8181036000808673ffffffffffffffffffffffffffffffffffffffff1673ffffffffffffffffffffffffffffffffffffffff16815260200190815260200160002081905550505b600073ffffffffffffffffffffffffffffffffffffffff168273ffffffffffffffffffffffffffffffffffffffff160361258157806002600082825403925050819055506125ce565b806000808473ffffffffffffffffffffffffffffffffffffffff1673ffffffffffffffffffffffffffffffffffffffff168152602001908152602001600020600082825401925050819055505b8173ffffffffffffffffffffffffffffffffffffffff168373ffffffffffffffffffffffffffffffffffffffff167fddf252ad1be2c89b69c2b068fc378daa952ba7f163c4a11628f55a4df523b3ef8360405161262b91906126da565b60405180910390a3505050565b600080fd5b600080fd5b6000819050919050565b61265581612642565b811461266057600080fd5b50565b6000813590506126728161264c565b92915050565b60008060006060848603121561269157612690612638565b5b600061269f86828701612663565b93505060206126b086828701612663565b92505060406126c186828701612663565b9150509250925092565b6126d481612642565b82525050565b60006020820190506126ef60008301846126cb565b92915050565b600081519050919050565b600082825260208201905092915050565b60005b8381101561272f578082015181840152602081019050612714565b60008484015250505050565b6000601f19601f8301169050919050565b6000612757826126f5565b6127618185612700565b9350612771818560208601612711565b61277a8161273b565b840191505092915050565b6000602082019050818103600083015261279f818461274c565b905092915050565b600073ffffffffffffffffffffffffffffffffffffffff82169050919050565b60006127d2826127a7565b9050919050565b6127e2816127c7565b81146127ed57600080fd5b50565b6000813590506127ff816127d9565b92915050565b6000806040838503121561281c5761281b612638565b5b600061282a858286016127f0565b925050602061283b85828601612663565b9150509250929050565b60008115159050919050565b61285a81612845565b82525050565b60006020820190506128756000830184612851565b92915050565b612884816127c7565b82525050565b600060208201905061289f600083018461287b565b92915050565b6000806000606084860312156128be576128bd612638565b5b60006128cc868287016127f0565b93505060206128dd868287016127f0565b92505060406128ee86828701612663565b9150509250925092565b600060ff82169050919050565b61290e816128f8565b82525050565b60006020820190506129296000830184612905565b92915050565b600080fd5b600080fd5b600080fd5b60008083601f8401126129545761295361292f565b5b8235905067ffffffffffffffff81111561297157612970612934565b5b60208301915083602082028301111561298d5761298c612939565b5b9250929050565b60008060008060008060a087890312156129b1576129b0612638565b5b60006129bf89828a01612663565b96505060206129d089828a01612663565b955050604087013567ffffffffffffffff8111156129f1576129f061263d565b5b6129fd89828a0161293e565b94509450506060612a1089828a016127f0565b9250506080612a2189828a01612663565b9150509295509295509295565b600081519050919050565b600082825260208201905092915050565b6000819050602082019050919050565b612a6381612642565b82525050565b6000612a758383612a5a565b60208301905092915050565b6000602082019050919050565b6000612a9982612a2e565b612aa38185612a39565b9350612aae83612a4a565b8060005b83811015612adf578151612ac68882612a69565b9750612ad183612a81565b925050600181019050612ab2565b5085935050505092915050565b60006020820190508181036000830152612b068184612a8e565b905092915050565b600060208284031215612b2457612b23612638565b5b6000612b32848285016127f0565b91505092915050565b60008060408385031215612b5257612b51612638565b5b6000612b60858286016127f0565b9250506020612b71858286016127f0565b9150509250929050565b600080600080600080600060e0888a031215612b9a57612b99612638565b5b6000612ba88a828b016127f0565b9750506020612bb98a828b016127f0565b9650506040612bca8a828b01612663565b9550506060612bdb8a828b01612663565b9450506080612bec8a828b01612663565b93505060a0612bfd8a828b016127f0565b92505060c0612c0e8a828b01612663565b91505092959891949750929550565b6000604082019050612c3260008301856126cb565b612c3f60208301846126cb565b9392505050565b600080600080600080600080610100898b031215612c6757612c66612638565b5b6000612c758b828c016127f0565b9850506020612c868b828c016127f0565b9750506040612c978b828c01612663565b9650506060612ca88b828c01612663565b9550506080612cb98b828c01612663565b94505060a0612cca8b828c01612663565b93505060c0612cdb8b828c016127f0565b92505060e0612cec8b828c01612663565b9150509295985092959890939650565b6000606082019050612d1160008301866126cb565b612d1e60208301856126cb565b612d2b60408301846126cb565b949350505050565b7f494e53554646494349454e545f494e0000000000000000000000000000000000600082015250565b6000612d69600f83612700565b9150612d7482612d33565b602082019050919050565b60006020820190508181036000830152612d9881612d5c565b9050919050565b7f4e4f5f4c49515549444954590000000000000000000000000000000000000000600082015250565b6000612dd5600c83612700565b9150612de082612d9f565b602082019050919050565b60006020820190508181036000830152612e0481612dc8565b9050919050565b7f4e487b7100000000000000000000000000000000000000000000000000000000600052601160045260246000fd5b6000612e4582612642565b9150612e5083612642565b9250828202612e5e81612642565b91508282048414831517612e7557612e74612e0b565b5b5092915050565b6000612e8782612642565b9150612e9283612642565b9250828201905080821115612eaa57612ea9612e0b565b5b92915050565b7f4e487b7100000000000000000000000000000000000000000000000000000000600052601260045260246000fd5b6000612eea82612642565b9150612ef583612642565b925082612f0557612f04612eb0565b5b828204905092915050565b7f4e487b7100000000000000000000000000000000000000000000000000000000600052602260045260246000fd5b60006002820490506001821680612f5757607f821691505b602082108103612f6a57612f69612f10565b5b50919050565b7f4558504952454400000000000000000000000000000000000000000000000000600082015250565b6000612fa6600783612700565b9150612fb182612f70565b602082019050919050565b60006020820190508181036000830152612fd581612f99565b9050919050565b7f494e56414c49445f504154485f4c454e47544800000000000000000000000000600082015250565b6000613012601383612700565b915061301d82612fdc565b602082019050919050565b6000602082019050818103600083015261304181613005565b9050919050565b7f4e487b7100000000000000000000000000000000000000000000000000000000600052603260045260246000fd5b7f494e56414c49445f504154480000000000000000000000000000000000000000600082015250565b60006130ad600c83612700565b91506130b882613077565b602082019050919050565b600060208201905081810360008301526130dc816130a0565b9050919050565b7f4e487b7100000000000000000000000000000000000000000000000000000000600052604160045260246000fd5b7f494e53554646494349454e545f4f555400000000000000000000000000000000600082015250565b6000613148601083612700565b915061315382613112565b602082019050919050565b600060208201905081810360008301526131778161313b565b9050919050565b6000606082019050613193600083018661287b565b6131a0602083018561287b565b6131ad60408301846126cb565b949350505050565b6131be81612845565b81146131c957600080fd5b50565b6000815190506131db816131b5565b92915050565b6000602082840312156131f7576131f6612638565b5b6000613205848285016131cc565b91505092915050565b600061321982612642565b915061322483612642565b925082820390508181111561323c5761323b612e0b565b5b92915050565b6000604082019050613257600083018561287b565b61326460208301846126cb565b9392505050565b7f494e56414c49445f504149520000000000000000000000000000000000000000600082015250565b60006132a1600c83612700565b91506132ac8261326b565b602082019050919050565b600060208201905081810360008301526132d081613294565b9050919050565b7f494e53554646494349454e545f41000000000000000000000000000000000000600082015250565b600061330d600e83612700565b9150613318826132d7565b602082019050919050565b6000602082019050818103600083015261333c81613300565b9050919050565b7f494e53554646494349454e545f42000000000000000000000000000000000000600082015250565b6000613379600e83612700565b915061338482613343565b602082019050919050565b600060208201905081810360008301526133a88161336c565b9050919050565b7f4558434553534956455f494e5055540000000000000000000000000000000000600082015250565b60006133e5600f83612700565b91506133f0826133af565b602082019050919050565b60006020820190508181036000830152613414816133d8565b9050919050565b6000606082019050613430600083018661287b565b61343d60208301856126cb565b61344a60408301846126cb565b949350505050565b7f494e53554646494349454e545f414d5400000000000000000000000000000000600082015250565b6000613488601083612700565b915061349382613452565b602082019050919050565b600060208201905081810360008301526134b78161347b565b905091905056fea2646970667358221220e4cda9d76f6a2d5c37d16a90b1f5d5090fb85c7561717b064b6cff320db1316564736f6c634300081c0033",
          "opcodes": "PUSH1 0xC0 PUSH1 0x40 MSTORE CALLVALUE DUP1 ISZERO PUSH2 0x10 JUMPI PUSH1 0x0 DUP1 REVERT JUMPDEST POP PUSH1 0x40 MLOAD PUSH2 0x3E29 CODESIZE SUB DUP1 PUSH2 0x3E29 DUP4 CODECOPY DUP2 DUP2 ADD PUSH1 0x40 MSTORE DUP2 ADD SWAP1 PUSH2 0x32 SWAP2 SWAP1 PUSH2 0x3B4 JUMP JUMPDEST PUSH1 0x40 MLOAD DUP1 PUSH1 0x40 ADD PUSH1 0x40 MSTORE DUP1 PUSH1 0x9 DUP2 MSTORE PUSH1 0x20 ADD PUSH32 0x4C69717569646974790000000000000000000000000000000000000000000000 DUP2 MSTORE POP PUSH1 0x40 MLOAD DUP1 PUSH1 0x40 ADD PUSH1 0x40 MSTORE DUP1 PUSH1 0x3 DUP2 MSTORE PUSH1 0x20 ADD PUSH32 0x53574C0000000000000000000000000000000000000000000000000000000000 DUP2 MSTORE POP DUP2 PUSH1 0x3 SWAP1 DUP2 PUSH2 0xAD SWAP2 SWAP1 PUSH2 0x644 JUMP JUMPDEST POP DUP1 PUSH1 0x4 SWAP1 DUP2 PUSH2 0xBD SWAP2 SWAP1 PUSH2 0x644 JUMP JUMPDEST POP POP POP PUSH1 0x0 PUSH20 0xFFFFFFFFFFFFFFFFFFFFFFFFFFFFFFFFFFFFFFFF AND DUP3 PUSH20 0xFFFFFFFFFFFFFFFFFFFFFFFFFFFFFFFFFFFFFFFF AND EQ ISZERO DUP1 ISZERO PUSH2 0x12A JUMPI POP PUSH1 0x0 PUSH20 0xFFFFFFFFFFFFFFFFFFFFFFFFFFFFFFFFFFFFFFFF AND DUP2 PUSH20 0xFFFFFFFFFFFFFFFFFFFFFFFFFFFFFFFFFFFFFFFF AND EQ ISZERO JUMPDEST PUSH2 0x169 JUMPI PUSH1 0x40 MLOAD PUSH32 0x8C379A000000000000000000000000000000000000000000000000000000000 DUP2 MSTORE PUSH1 0x4 ADD PUSH2 0x160 SWAP1 PUSH2 0x773 JUMP JUMPDEST PUSH1 0x40 MLOAD DUP1 SWAP2 SUB SWAP1 REVERT JUMPDEST DUP1 PUSH20 0xFFFFFFFFFFFFFFFFFFFFFFFFFFFFFFFFFFFFFFFF AND DUP3 PUSH20 0xFFFFFFFFFFFFFFFFFFFFFFFFFFFFFFFFFFFFFFFF AND SUB PUSH2 0x1D7 JUMPI PUSH1 0x40 MLOAD PUSH32 0x8C379A000000000000000000000000000000000000000000000000000000000 DUP2 MSTORE PUSH1 0x4 ADD PUSH2 0x1CE SWAP1 PUSH2 0x7DF JUMP JUMPDEST PUSH1 0x40 MLOAD DUP1 SWAP2 SUB SWAP1 REVERT JUMPDEST DUP1 PUSH20 0xFFFFFFFFFFFFFFFFFFFFFFFFFFFFFFFFFFFFFFFF AND DUP3 PUSH20 0xFFFFFFFFFFFFFFFFFFFFFFFFFFFFFFFFFFFFFFFF AND LT ISZERO PUSH2 0x278 JUMPI DUP2 PUSH20 0xFFFFFFFFFFFFFFFFFFFFFFFFFFFFFFFFFFFFFFFF AND PUSH1 0x80 DUP2 PUSH20 0xFFFFFFFFFFFFFFFFFFFFFFFFFFFFFFFFFFFFFFFF AND DUP2 MSTORE POP POP DUP1 PUSH20 0xFFFFFFFFFFFFFFFFFFFFFFFFFFFFFFFFFFFFFFFF AND PUSH1 0xA0 DUP2 PUSH20 0xFFFFFFFFFFFFFFFFFFFFFFFFFFFFFFFFFFFFFFFF AND DUP2 MSTORE POP POP PUSH2 0x2E1 JUMP JUMPDEST DUP1 PUSH20 0xFFFFFFFFFFFFFFFFFFFFFFFFFFFFFFFFFFFFFFFF AND PUSH1 0x80 DUP2 PUSH20 0xFFFFFFFFFFFFFFFFFFFFFFFFFFFFFFFFFFFFFFFF AND DUP2 MSTORE POP POP DUP2 PUSH20 0xFFFFFFFFFFFFFFFFFFFFFFFFFFFFFFFFFFFFFFFF AND PUSH1 0xA0 DUP2 PUSH20 0xFFFFFFFFFFFFFFFFFFFFFFFFFFFFFFFFFFFFFFFF AND DUP2 MSTORE POP POP JUMPDEST PUSH1 0xA0 MLOAD PUSH20 0xFFFFFFFFFFFFFFFFFFFFFFFFFFFFFFFFFFFFFFFF AND PUSH1 0x80 MLOAD PUSH20 0xFFFFFFFFFFFFFFFFFFFFFFFFFFFFFFFFFFFFFFFF AND PUSH32 0xA92A2B95C8D8436F6AC4C673C61487364F877EFB9534D4296FAD8EF904546C94 ADDRESS PUSH1 0x40 MLOAD PUSH2 0x342 SWAP2 SWAP1 PUSH2 0x80E JUMP JUMPDEST PUSH1 0x40 MLOAD DUP1 SWAP2 SUB SWAP1 LOG3 POP POP PUSH2 0x829 JUMP JUMPDEST PUSH1 0x0 DUP1 REVERT JUMPDEST PUSH1 0x0 PUSH20 0xFFFFFFFFFFFFFFFFFFFFFFFFFFFFFFFFFFFFFFFF DUP3 AND SWAP1 POP SWAP2 SWAP1 POP JUMP JUMPDEST PUSH1 0x0 PUSH2 0x381 DUP3 PUSH2 0x356 JUMP JUMPDEST SWAP1 POP SWAP2 SWAP1 POP JUMP JUMPDEST PUSH2 0x391 DUP2 PUSH2 0x376 JUMP JUMPDEST DUP2 EQ PUSH2 0x39C JUMPI PUSH1 0x0 DUP1 REVERT JUMPDEST POP JUMP JUMPDEST PUSH1 0x0 DUP2 MLOAD SWAP1 POP PUSH2 0x3AE DUP2 PUSH2 0x388 JUMP JUMPDEST SWAP3 SWAP2 POP POP JUMP JUMPDEST PUSH1 0x0 DUP1 PUSH1 0x40 DUP4 DUP6 SUB SLT ISZERO PUSH2 0x3CB JUMPI PUSH2 0x3CA PUSH2 0x351 JUMP JUMPDEST JUMPDEST PUSH1 0x0 PUSH2 0x3D9 DUP6 DUP3 DUP7 ADD PUSH2 0x39F JUMP JUMPDEST SWAP3 POP POP PUSH1 0x20 PUSH2 0x3EA DUP6 DUP3 DUP7 ADD PUSH2 0x39F JUMP JUMPDEST SWAP2 POP POP SWAP3 POP SWAP3 SWAP1 POP JUMP JUMPDEST PUSH1 0x0 DUP2 MLOAD SWAP1 POP SWAP2 SWAP1 POP JUMP JUMPDEST PUSH32 0x4E487B7100000000000000000000000000000000000000000000000000000000 PUSH1 0x0 MSTORE PUSH1 0x41 PUSH1 0x4 MSTORE PUSH1 0x24 PUSH1 0x0 REVERT JUMPDEST PUSH32 0x4E487B7100000000000000000000000000000000000000000000000000000000 PUSH1 0x0 MSTORE PUSH1 0x22 PUSH1 0x4 MSTORE PUSH1 0x24 PUSH1 0x0 REVERT JUMPDEST PUSH1 0x0 PUSH1 0x2 DUP3 DIV SWAP1 POP PUSH1 0x1 DUP3 AND DUP1 PUSH2 0x475 JUMPI PUSH1 0x7F DUP3 AND SWAP2 POP JUMPDEST PUSH1 0x20 DUP3 LT DUP2 SUB PUSH2 0x488 JUMPI PUSH2 0x487 PUSH2 0x42E JUMP JUMPDEST JUMPDEST POP SWAP2 SWAP1 POP JUMP JUMPDEST PUSH1 0x0 DUP2 SWAP1 POP DUP2 PUSH1 0x0 MSTORE PUSH1 0x20 PUSH1 0x0 KECCAK256 SWAP1 POP SWAP2 SWAP1 POP JUMP JUMPDEST PUSH1 0x0 PUSH1 0x20 PUSH1 0x1F DUP4 ADD DIV SWAP1 POP SWAP2 SWAP1 POP JUMP JUMPDEST PUSH1 0x0 DUP3 DUP3 SHL SWAP1 POP SWAP3 SWAP2 POP POP JUMP JUMPDEST PUSH1 0x0 PUSH1 0x8 DUP4 MUL PUSH2 0x4F0 PUSH32 0xFFFFFFFFFFFFFFFFFFFFFFFFFFFFFFFFFFFFFFFFFFFFFFFFFFFFFFFFFFFFFFFF DUP3 PUSH2 0x4B3 JUMP JUMPDEST PUSH2 0x4FA DUP7 DUP4 PUSH2 0x4B3 JUMP JUMPDEST SWAP6 POP DUP1 NOT DUP5 AND SWAP4 POP DUP1 DUP7 AND DUP5 OR SWAP3 POP POP POP SWAP4 SWAP3 POP POP POP JUMP JUMPDEST PUSH1 0x0 DUP2 SWAP1 POP SWAP2 SWAP1 POP JUMP JUMPDEST PUSH1 0x0 DUP2 SWAP1 POP SWAP2 SWAP1 POP JUMP JUMPDEST PUSH1 0x0 PUSH2 0x541 PUSH2 0x53C PUSH2 0x537 DUP5 PUSH2 0x512 JUMP JUMPDEST PUSH2 0x51C JUMP JUMPDEST PUSH2 0x512 JUMP JUMPDEST SWAP1 POP SWAP2 SWAP1 POP JUMP JUMPDEST PUSH1 0x0 DUP2 SWAP1 POP SWAP2 SWAP1 POP JUMP JUMPDEST PUSH2 0x55B DUP4 PUSH2 0x526 JUMP JUMPDEST PUSH2 0x56F PUSH2 0x567 DUP3 PUSH2 0x548 JUMP JUMPDEST DUP5 DUP5 SLOAD PUSH2 0x4C0 JUMP JUMPDEST DUP3 SSTORE POP POP POP POP JUMP JUMPDEST PUSH1 0x0 SWAP1 JUMP JUMPDEST PUSH2 0x584 PUSH2 0x577 JUMP JUMPDEST PUSH2 0x58F DUP2 DUP5 DUP5 PUSH2 0x552 JUMP JUMPDEST POP POP POP JUMP JUMPDEST JUMPDEST DUP2 DUP2 LT ISZERO PUSH2 0x5B3 JUMPI PUSH2 0x5A8 PUSH1 0x0 DUP3 PUSH2 0x57C JUMP JUMPDEST PUSH1 0x1 DUP2 ADD SWAP1 POP PUSH2 0x595 JUMP JUMPDEST POP POP JUMP JUMPDEST PUSH1 0x1F DUP3 GT ISZERO PUSH2 0x5F8 JUMPI PUSH2 0x5C9 DUP2 PUSH2 0x48E JUMP JUMPDEST PUSH2 0x5D2 DUP5 PUSH2 0x4A3 JUMP JUMPDEST DUP2 ADD PUSH1 0x20 DUP6 LT ISZERO PUSH2 0x5E1 JUMPI DUP2 SWAP1 POP JUMPDEST PUSH2 0x5F5 PUSH2 0x5ED DUP6 PUSH2 0x4A3 JUMP JUMPDEST DUP4 ADD DUP3 PUSH2 0x594 JUMP JUMPDEST POP POP JUMPDEST POP POP POP JUMP JUMPDEST PUSH1 0x0 DUP3 DUP3 SHR SWAP1 POP SWAP3 SWAP2 POP POP JUMP JUMPDEST PUSH1 0x0 PUSH2 0x61B PUSH1 0x0 NOT DUP5 PUSH1 0x8 MUL PUSH2 0x5FD JUMP JUMPDEST NOT DUP1 DUP4 AND SWAP2 POP POP SWAP3 SWAP2 POP POP JUMP JUMPDEST PUSH1 0x0 PUSH2 0x634 DUP4 DUP4 PUSH2 0x60A JUMP JUMPDEST SWAP2 POP DUP3 PUSH1 0x2 MUL DUP3 OR SWAP1 POP SWAP3 SWAP2 POP POP JUMP JUMPDEST PUSH2 0x64D DUP3 PUSH2 0x3F4 JUMP JUMPDEST PUSH8 0xFFFFFFFFFFFFFFFF DUP2 GT ISZERO PUSH2 0x666 JUMPI PUSH2 0x665 PUSH2 0x3FF JUMP JUMPDEST JUMPDEST PUSH2 0x670 DUP3 SLOAD PUSH2 0x45D JUMP JUMPDEST PUSH2 0x67B DUP3 DUP3 DUP6 PUSH2 0x5B7 JUMP JUMPDEST PUSH1 0x0 PUSH1 0x20 SWAP1 POP PUSH1 0x1F DUP4 GT PUSH1 0x1 DUP2 EQ PUSH2 0x6AE JUMPI PUSH1 0x0 DUP5 ISZERO PUSH2 0x69C JUMPI DUP3 DUP8 ADD MLOAD SWAP1 POP JUMPDEST PUSH2 0x6A6 DUP6 DUP3 PUSH2 0x628 JUMP JUMPDEST DUP7 SSTORE POP PUSH2 0x70E JUMP JUMPDEST PUSH1 0x1F NOT DUP5 AND PUSH2 0x6BC DUP7 PUSH2 0x48E JUMP JUMPDEST PUSH1 0x0 JUMPDEST DUP3 DUP2 LT ISZERO PUSH2 0x6E4 JUMPI DUP5 DUP10 ADD MLOAD DUP3 SSTORE PUSH1 0x1 DUP3 ADD SWAP2 POP PUSH1 0x20 DUP6 ADD SWAP5 POP PUSH1 0x20 DUP2 ADD SWAP1 POP PUSH2 0x6BF JUMP JUMPDEST DUP7 DUP4 LT ISZERO PUSH2 0x701 JUMPI DUP5 DUP10 ADD MLOAD PUSH2 0x6FD PUSH1 0x1F DUP10 AND DUP3 PUSH2 0x60A JUMP JUMPDEST DUP4 SSTORE POP JUMPDEST PUSH1 0x1 PUSH1 0x2 DUP9 MUL ADD DUP9 SSTORE POP POP POP JUMPDEST POP POP POP POP POP POP JUMP JUMPDEST PUSH1 0x0 DUP3 DUP3 MSTORE PUSH1 0x20 DUP3 ADD SWAP1 POP SWAP3 SWAP2 POP POP JUMP JUMPDEST PUSH32 0x5A45524F5F414444524553530000000000000000000000000000000000000000 PUSH1 0x0 DUP3 ADD MSTORE POP JUMP JUMPDEST PUSH1 0x0 PUSH2 0x75D PUSH1 0xC DUP4 PUSH2 0x716 JUMP JUMPDEST SWAP2 POP PUSH2 0x768 DUP3 PUSH2 0x727 JUMP JUMPDEST PUSH1 0x20 DUP3 ADD SWAP1 POP SWAP2 SWAP1 POP JUMP JUMPDEST PUSH1 0x0 PUSH1 0x20 DUP3 ADD SWAP1 POP DUP2 DUP2 SUB PUSH1 0x0 DUP4 ADD MSTORE PUSH2 0x78C DUP2 PUSH2 0x750 JUMP JUMPDEST SWAP1 POP SWAP2 SWAP1 POP JUMP JUMPDEST PUSH32 0x4944454E544943414C5F41444452000000000000000000000000000000000000 PUSH1 0x0 DUP3 ADD MSTORE POP JUMP JUMPDEST PUSH1 0x0 PUSH2 0x7C9 PUSH1 0xE DUP4 PUSH2 0x716 JUMP JUMPDEST SWAP2 POP PUSH2 0x7D4 DUP3 PUSH2 0x793 JUMP JUMPDEST PUSH1 0x20 DUP3 ADD SWAP1 POP SWAP2 SWAP1 POP JUMP JUMPDEST PUSH1 0x0 PUSH1 0x20 DUP3 ADD SWAP1 POP DUP2 DUP2 SUB PUSH1 0x0 DUP4 ADD MSTORE PUSH2 0x7F8 DUP2 PUSH2 0x7BC JUMP JUMPDEST SWAP1 POP SWAP2 SWAP1 POP JUMP JUMPDEST PUSH2 0x808 DUP2 PUSH2 0x376 JUMP JUMPDEST DUP3 MSTORE POP POP JUMP JUMPDEST PUSH1 0x0 PUSH1 0x20 DUP3 ADD SWAP1 POP PUSH2 0x823 PUSH1 0x0 DUP4 ADD DUP5 PUSH2 0x7FF JUMP JUMPDEST SWAP3 SWAP2 POP POP JUMP JUMPDEST PUSH1 0x80 MLOAD PUSH1 0xA0 MLOAD PUSH2 0x34F4 PUSH2 0x935 PUSH1 0x0 CODECOPY PUSH1 0x0 DUP2 DUP2 PUSH2 0x6C9 ADD MSTORE DUP2 DUP2 PUSH2 0x747 ADD MSTORE DUP2 DUP2 PUSH2 0xC88 ADD MSTORE DUP2 DUP2 PUSH2 0xE01 ADD MSTORE DUP2 DUP2 PUSH2 0xE57 ADD MSTORE DUP2 DUP2 PUSH2 0x10D6 ADD MSTORE DUP2 DUP2 PUSH2 0x112C ADD MSTORE DUP2 DUP2 PUSH2 0x1413 ADD MSTORE DUP2 DUP2 PUSH2 0x14B2 ADD MSTORE DUP2 DUP2 PUSH2 0x15C2 ADD MSTORE DUP2 DUP2 PUSH2 0x1618 ADD MSTORE DUP2 DUP2 PUSH2 0x1898 ADD MSTORE DUP2 DUP2 PUSH2 0x18EE ADD MSTORE DUP2 DUP2 PUSH2 0x1C0C ADD MSTORE PUSH2 0x1D98 ADD MSTORE PUSH1 0x0 DUP2 DUP2 PUSH2 0x559 ADD MSTORE DUP2 DUP2 PUSH2 0x64B ADD MSTORE DUP2 DUP2 PUSH2 0x7C5 ADD MSTORE DUP2 DUP2 PUSH2 0x8EC ADD MSTORE DUP2 DUP2 PUSH2 0xDAB ADD MSTORE DUP2 DUP2 PUSH2 0xEAD ADD MSTORE DUP2 DUP2 PUSH2 0xF90 ADD MSTORE DUP2 DUP2 PUSH2 0x1080 ADD MSTORE DUP2 DUP2 PUSH2 0x1182 ADD MSTORE DUP2 DUP2 PUSH2 0x1212 ADD MSTORE DUP2 DUP2 PUSH2 0x1374 ADD MSTORE DUP2 DUP2 PUSH2 0x14E9 ADD MSTORE DUP2 DUP2 PUSH2 0x156C ADD MSTORE DUP2 DUP2 PUSH2 0x166E ADD MSTORE DUP2 DUP2 PUSH2 0x16FE ADD MSTORE DUP2 DUP2 PUSH2 0x1842 ADD MSTORE DUP2 DUP2 PUSH2 0x1944 ADD MSTORE DUP2 DUP2 PUSH2 0x19D4 ADD MSTORE DUP2 DUP2 PUSH2 0x1B6B ADD MSTORE PUSH2 0x1DCF ADD MSTORE PUSH2 0x34F4 PUSH1 0x0 RETURN INVALID PUSH1 0x80 PUSH1 0x40 MSTORE CALLVALUE DUP1 ISZERO PUSH2 0x10 JUMPI PUSH1 0x0 DUP1 REVERT JUMPDEST POP PUSH1 0x4 CALLDATASIZE LT PUSH2 0x10B JUMPI PUSH1 0x0 CALLDATALOAD PUSH1 0xE0 SHR DUP1 PUSH4 0x5F64B55B GT PUSH2 0xA2 JUMPI DUP1 PUSH4 0xAC41865A GT PUSH2 0x71 JUMPI DUP1 PUSH4 0xAC41865A EQ PUSH2 0x2E4 JUMPI DUP1 PUSH4 0xBAA2ABDE EQ PUSH2 0x314 JUMPI DUP1 PUSH4 0xD52BB6F4 EQ PUSH2 0x345 JUMPI DUP1 PUSH4 0xDD62ED3E EQ PUSH2 0x376 JUMPI DUP1 PUSH4 0xE8E33700 EQ PUSH2 0x3A6 JUMPI PUSH2 0x10B JUMP JUMPDEST DUP1 PUSH4 0x5F64B55B EQ PUSH2 0x248 JUMPI DUP1 PUSH4 0x70A08231 EQ PUSH2 0x266 JUMPI DUP1 PUSH4 0x95D89B41 EQ PUSH2 0x296 JUMPI DUP1 PUSH4 0xA9059CBB EQ PUSH2 0x2B4 JUMPI PUSH2 0x10B JUMP JUMPDEST DUP1 PUSH4 0x18160DDD GT PUSH2 0xDE JUMPI DUP1 PUSH4 0x18160DDD EQ PUSH2 0x1AC JUMPI DUP1 PUSH4 0x23B872DD EQ PUSH2 0x1CA JUMPI DUP1 PUSH4 0x313CE567 EQ PUSH2 0x1FA JUMPI DUP1 PUSH4 0x38ED1739 EQ PUSH2 0x218 JUMPI PUSH2 0x10B JUMP JUMPDEST DUP1 PUSH4 0x54D50D4 EQ PUSH2 0x110 JUMPI DUP1 PUSH4 0x6FDDE03 EQ PUSH2 0x140 JUMPI DUP1 PUSH4 0x95EA7B3 EQ PUSH2 0x15E JUMPI DUP1 PUSH4 0xFC63D10 EQ PUSH2 0x18E JUMPI JUMPDEST PUSH1 0x0 DUP1 REVERT JUMPDEST PUSH2 0x12A PUSH1 0x4 DUP1 CALLDATASIZE SUB DUP2 ADD SWAP1 PUSH2 0x125 SWAP2 SWAP1 PUSH2 0x2678 JUMP JUMPDEST PUSH2 0x3D8 JUMP JUMPDEST PUSH1 0x40 MLOAD PUSH2 0x137 SWAP2 SWAP1 PUSH2 0x26DA JUMP JUMPDEST PUSH1 0x40 MLOAD DUP1 SWAP2 SUB SWAP1 RETURN JUMPDEST PUSH2 0x148 PUSH2 0x4A2 JUMP JUMPDEST PUSH1 0x40 MLOAD PUSH2 0x155 SWAP2 SWAP1 PUSH2 0x2785 JUMP JUMPDEST PUSH1 0x40 MLOAD DUP1 SWAP2 SUB SWAP1 RETURN JUMPDEST PUSH2 0x178 PUSH1 0x4 DUP1 CALLDATASIZE SUB DUP2 ADD SWAP1 PUSH2 0x173 SWAP2 SWAP1 PUSH2 0x2805 JUMP JUMPDEST PUSH2 0x534 JUMP JUMPDEST PUSH1 0x40 MLOAD PUSH2 0x185 SWAP2 SWAP1 PUSH2 0x2860 JUMP JUMPDEST PUSH1 0x40 MLOAD DUP1 SWAP2 SUB SWAP1 RETURN JUMPDEST PUSH2 0x196 PUSH2 0x557 JUMP JUMPDEST PUSH1 0x40 MLOAD PUSH2 0x1A3 SWAP2 SWAP1 PUSH2 0x288A JUMP JUMPDEST PUSH1 0x40 MLOAD DUP1 SWAP2 SUB SWAP1 RETURN JUMPDEST PUSH2 0x1B4 PUSH2 0x57B JUMP JUMPDEST PUSH1 0x40 MLOAD PUSH2 0x1C1 SWAP2 SWAP1 PUSH2 0x26DA JUMP JUMPDEST PUSH1 0x40 MLOAD DUP1 SWAP2 SUB SWAP1 RETURN JUMPDEST PUSH2 0x1E4 PUSH1 0x4 DUP1 CALLDATASIZE SUB DUP2 ADD SWAP1 PUSH2 0x1DF SWAP2 SWAP1 PUSH2 0x28A5 JUMP JUMPDEST PUSH2 0x585 JUMP JUMPDEST PUSH1 0x40 MLOAD PUSH2 0x1F1 SWAP2 SWAP1 PUSH2 0x2860 JUMP JUMPDEST PUSH1 0x40 MLOAD DUP1 SWAP2 SUB SWAP1 RETURN JUMPDEST PUSH2 0x202 PUSH2 0x5B4 JUMP JUMPDEST PUSH1 0x40 MLOAD PUSH2 0x20F SWAP2 SWAP1 PUSH2 0x2914 JUMP JUMPDEST PUSH1 0x40 MLOAD DUP1 SWAP2 SUB SWAP1 RETURN JUMPDEST PUSH2 0x232 PUSH1 0x4 DUP1 CALLDATASIZE SUB DUP2 ADD SWAP1 PUSH2 0x22D SWAP2 SWAP1 PUSH2 0x2994 JUMP JUMPDEST PUSH2 0x5BD JUMP JUMPDEST PUSH1 0x40 MLOAD PUSH2 0x23F SWAP2 SWAP1 PUSH2 0x2AEC JUMP JUMPDEST PUSH1 0x40 MLOAD DUP1 SWAP2 SUB SWAP1 RETURN JUMPDEST PUSH2 0x250 PUSH2 0xC86 JUMP JUMPDEST PUSH1 0x40 MLOAD PUSH2 0x25D SWAP2 SWAP1 PUSH2 0x288A JUMP JUMPDEST PUSH1 0x40 MLOAD DUP1 SWAP2 SUB SWAP1 RETURN JUMPDEST PUSH2 0x280 PUSH1 0x4 DUP1 CALLDATASIZE SUB DUP2 ADD SWAP1 PUSH2 0x27B SWAP2 SWAP1 PUSH2 0x2B0E JUMP JUMPDEST PUSH2 0xCAA JUMP JUMPDEST PUSH1 0x40 MLOAD PUSH2 0x28D SWAP2 SWAP1 PUSH2 0x26DA JUMP JUMPDEST PUSH1 0x40 MLOAD DUP1 SWAP2 SUB SWAP1 RETURN JUMPDEST PUSH2 0x29E PUSH2 0xCF2 JUMP JUMPDEST PUSH1 0x40 MLOAD PUSH2 0x2AB SWAP2 SWAP1 PUSH2 0x2785 JUMP JUMPDEST PUSH1 0x40 MLOAD DUP1 SWAP2 SUB SWAP1 RETURN JUMPDEST PUSH2 0x2CE PUSH1 0x4 DUP1 CALLDATASIZE SUB DUP2 ADD SWAP1 PUSH2 0x2C9 SWAP2 SWAP1 PUSH2 0x2805 JUMP JUMPDEST PUSH2 0xD84 JUMP JUMPDEST PUSH1 0x40 MLOAD PUSH2 0x2DB SWAP2 SWAP1 PUSH2 0x2860 JUMP JUMPDEST PUSH1 0x40 MLOAD DUP1 SWAP2 SUB SWAP1 RETURN JUMPDEST PUSH2 0x2FE PUSH1 0x4 DUP1 CALLDATASIZE SUB DUP2 ADD SWAP1 PUSH2 0x2F9 SWAP2 SWAP1 PUSH2 0x2B3B JUMP JUMPDEST PUSH2 0xDA7 JUMP JUMPDEST PUSH1 0x40 MLOAD PUSH2 0x30B SWAP2 SWAP1 PUSH2 0x26DA JUMP JUMPDEST PUSH1 0x40 MLOAD DUP1 SWAP2 SUB SWAP1 RETURN JUMPDEST PUSH2 0x32E PUSH1 0x4 DUP1 CALLDATASIZE SUB DUP2 ADD SWAP1 PUSH2 0x329 SWAP2 SWAP1 PUSH2 0x2B7B JUMP JUMPDEST PUSH2 0x1037 JUMP JUMPDEST PUSH1 0x40 MLOAD PUSH2 0x33C SWAP3 SWAP2 SWAP1 PUSH2 0x2C1D JUMP JUMPDEST PUSH1 0x40 MLOAD DUP1 SWAP2 SUB SWAP1 RETURN JUMPDEST PUSH2 0x35F PUSH1 0x4 DUP1 CALLDATASIZE SUB DUP2 ADD SWAP1 PUSH2 0x35A SWAP2 SWAP1 PUSH2 0x2B3B JUMP JUMPDEST PUSH2 0x1567 JUMP JUMPDEST PUSH1 0x40 MLOAD PUSH2 0x36D SWAP3 SWAP2 SWAP1 PUSH2 0x2C1D JUMP JUMPDEST PUSH1 0x40 MLOAD DUP1 SWAP2 SUB SWAP1 RETURN JUMPDEST PUSH2 0x390 PUSH1 0x4 DUP1 CALLDATASIZE SUB DUP2 ADD SWAP1 PUSH2 0x38B SWAP2 SWAP1 PUSH2 0x2B3B JUMP JUMPDEST PUSH2 0x1770 JUMP JUMPDEST PUSH1 0x40 MLOAD PUSH2 0x39D SWAP2 SWAP1 PUSH2 0x26DA JUMP JUMPDEST PUSH1 0x40 MLOAD DUP1 SWAP2 SUB SWAP1 RETURN JUMPDEST PUSH2 0x3C0 PUSH1 0x4 DUP1 CALLDATASIZE SUB DUP2 ADD SWAP1 PUSH2 0x3BB SWAP2 SWAP1 PUSH2 0x2C46 JUMP JUMPDEST PUSH2 0x17F7 JUMP JUMPDEST PUSH1 0x40 MLOAD PUSH2 0x3CF SWAP4 SWAP3 SWAP2 SWAP1 PUSH2 0x2CFC JUMP JUMPDEST PUSH1 0x40 MLOAD DUP1 SWAP2 SUB SWAP1 RETURN JUMPDEST PUSH1 0x0 DUP1 DUP5 GT PUSH2 0x41C JUMPI PUSH1 0x40 MLOAD PUSH32 0x8C379A000000000000000000000000000000000000000000000000000000000 DUP2 MSTORE PUSH1 0x4 ADD PUSH2 0x413 SWAP1 PUSH2 0x2D7F JUMP JUMPDEST PUSH1 0x40 MLOAD DUP1 SWAP2 SUB SWAP1 REVERT JUMPDEST PUSH1 0x0 DUP4 GT DUP1 ISZERO PUSH2 0x42C JUMPI POP PUSH1 0x0 DUP3 GT JUMPDEST PUSH2 0x46B JUMPI PUSH1 0x40 MLOAD PUSH32 0x8C379A000000000000000000000000000000000000000000000000000000000 DUP2 MSTORE PUSH1 0x4 ADD PUSH2 0x462 SWAP1 PUSH2 0x2DEB JUMP JUMPDEST PUSH1 0x40 MLOAD DUP1 SWAP2 SUB SWAP1 REVERT JUMPDEST PUSH1 0x0 DUP3 DUP6 PUSH2 0x479 SWAP2 SWAP1 PUSH2 0x2E3A JUMP JUMPDEST SWAP1 POP PUSH1 0x0 DUP6 DUP6 PUSH2 0x489 SWAP2 SWAP1 PUSH2 0x2E7C JUMP JUMPDEST SWAP1 POP DUP1 DUP3 PUSH2 0x497 SWAP2 SWAP1 PUSH2 0x2EDF JUMP JUMPDEST SWAP3 POP POP POP SWAP4 SWAP3 POP POP POP JUMP JUMPDEST PUSH1 0x60 PUSH1 0x3 DUP1 SLOAD PUSH2 0x4B1 SWAP1 PUSH2 0x2F3F JUMP JUMPDEST DUP1 PUSH1 0x1F ADD PUSH1 0x20 DUP1 SWAP2 DIV MUL PUSH1 0x20 ADD PUSH1 0x40 MLOAD SWAP1 DUP2 ADD PUSH1 0x40 MSTORE DUP1 SWAP3 SWAP2 SWAP1 DUP2 DUP2 MSTORE PUSH1 0x20 ADD DUP3 DUP1 SLOAD PUSH2 0x4DD SWAP1 PUSH2 0x2F3F JUMP JUMPDEST DUP1 ISZERO PUSH2 0x52A JUMPI DUP1 PUSH1 0x1F LT PUSH2 0x4FF JUMPI PUSH2 0x100 DUP1 DUP4 SLOAD DIV MUL DUP4 MSTORE SWAP2 PUSH1 0x20 ADD SWAP2 PUSH2 0x52A JUMP JUMPDEST DUP3 ADD SWAP2 SWAP1 PUSH1 0x0 MSTORE PUSH1 0x20 PUSH1 0x0 KECCAK256 SWAP1 JUMPDEST DUP2 SLOAD DUP2 MSTORE SWAP1 PUSH1 0x1 ADD SWAP1 PUSH1 0x20 ADD DUP1 DUP4 GT PUSH2 0x50D JUMPI DUP3 SWAP1 SUB PUSH1 0x1F AND DUP3 ADD SWAP2 JUMPDEST POP POP POP POP POP SWAP1 POP SWAP1 JUMP JUMPDEST PUSH1 0x0 DUP1 PUSH2 0x53F PUSH2 0x1E4F JUMP JUMPDEST SWAP1 POP PUSH2 0x54C DUP2 DUP6 DUP6 PUSH2 0x1E57 JUMP JUMPDEST PUSH1 0x1 SWAP2 POP POP SWAP3 SWAP2 POP POP JUMP JUMPDEST PUSH32 0x0 DUP2 JUMP JUMPDEST PUSH1 0x0 PUSH1 0x2 SLOAD SWAP1 POP SWAP1 JUMP JUMPDEST PUSH1 0x0 DUP1 PUSH2 0x590 PUSH2 0x1E4F JUMP JUMPDEST SWAP1 POP PUSH2 0x59D DUP6 DUP3 DUP6 PUSH2 0x1E69 JUMP JUMPDEST PUSH2 0x5A8 DUP6 DUP6 DUP6 PUSH2 0x1EFE JUMP JUMPDEST PUSH1 0x1 SWAP2 POP POP SWAP4 SWAP3 POP POP POP JUMP JUMPDEST PUSH1 0x0 PUSH1 0x12 SWAP1 POP SWAP1 JUMP JUMPDEST PUSH1 0x60 DUP2 TIMESTAMP DUP2 LT ISZERO PUSH2 0x603 JUMPI PUSH1 0x40 MLOAD PUSH32 0x8C379A000000000000000000000000000000000000000000000000000000000 DUP2 MSTORE PUSH1 0x4 ADD PUSH2 0x5FA SWAP1 PUSH2 0x2FBC JUMP JUMPDEST PUSH1 0x40 MLOAD DUP1 SWAP2 SUB SWAP1 REVERT JUMPDEST PUSH1 0x2 DUP7 DUP7 SWAP1 POP EQ PUSH2 0x649 JUMPI PUSH1 0x40 MLOAD PUSH32 0x8C379A000000000000000000000000000000000000000000000000000000000 DUP2 MSTORE PUSH1 0x4 ADD PUSH2 0x640 SWAP1 PUSH2 0x3028 JUMP JUMPDEST PUSH1 0x40 MLOAD DUP1 SWAP2 SUB SWAP1 REVERT JUMPDEST PUSH32 0x0 PUSH20 0xFFFFFFFFFFFFFFFFFFFFFFFFFFFFFFFFFFFFFFFF AND DUP7 DUP7 PUSH1 0x0 DUP2 DUP2 LT PUSH2 0x694 JUMPI PUSH2 0x693 PUSH2 0x3048 JUMP JUMPDEST JUMPDEST SWAP1 POP PUSH1 0x20 MUL ADD PUSH1 0x20 DUP2 ADD SWAP1 PUSH2 0x6A9 SWAP2 SWAP1 PUSH2 0x2B0E JUMP JUMPDEST PUSH20 0xFFFFFFFFFFFFFFFFFFFFFFFFFFFFFFFFFFFFFFFF AND EQ DUP1 ISZERO PUSH2 0x73F JUMPI POP PUSH32 0x0 PUSH20 0xFFFFFFFFFFFFFFFFFFFFFFFFFFFFFFFFFFFFFFFF AND DUP7 DUP7 PUSH1 0x1 DUP2 DUP2 LT PUSH2 0x712 JUMPI PUSH2 0x711 PUSH2 0x3048 JUMP JUMPDEST JUMPDEST SWAP1 POP PUSH1 0x20 MUL ADD PUSH1 0x20 DUP2 ADD SWAP1 PUSH2 0x727 SWAP2 SWAP1 PUSH2 0x2B0E JUMP JUMPDEST PUSH20 0xFFFFFFFFFFFFFFFFFFFFFFFFFFFFFFFFFFFFFFFF AND EQ JUMPDEST DUP1 PUSH2 0x83C JUMPI POP PUSH32 0x0 PUSH20 0xFFFFFFFFFFFFFFFFFFFFFFFFFFFFFFFFFFFFFFFF AND DUP7 DUP7 PUSH1 0x0 DUP2 DUP2 LT PUSH2 0x790 JUMPI PUSH2 0x78F PUSH2 0x3048 JUMP JUMPDEST JUMPDEST SWAP1 POP PUSH1 0x20 MUL ADD PUSH1 0x20 DUP2 ADD SWAP1 PUSH2 0x7A5 SWAP2 SWAP1 PUSH2 0x2B0E JUMP JUMPDEST PUSH20 0xFFFFFFFFFFFFFFFFFFFFFFFFFFFFFFFFFFFFFFFF AND EQ DUP1 ISZERO PUSH2 0x83B JUMPI POP PUSH32 0x0 PUSH20 0xFFFFFFFFFFFFFFFFFFFFFFFFFFFFFFFFFFFFFFFF AND DUP7 DUP7 PUSH1 0x1 DUP2 DUP2 LT PUSH2 0x80E JUMPI PUSH2 0x80D PUSH2 0x3048 JUMP JUMPDEST JUMPDEST SWAP1 POP PUSH1 0x20 MUL ADD PUSH1 0x20 DUP2 ADD SWAP1 PUSH2 0x823 SWAP2 SWAP1 PUSH2 0x2B0E JUMP JUMPDEST PUSH20 0xFFFFFFFFFFFFFFFFFFFFFFFFFFFFFFFFFFFFFFFF AND EQ JUMPDEST JUMPDEST PUSH2 0x87B JUMPI PUSH1 0x40 MLOAD PUSH32 0x8C379A000000000000000000000000000000000000000000000000000000000 DUP2 MSTORE PUSH1 0x4 ADD PUSH2 0x872 SWAP1 PUSH2 0x30C3 JUMP JUMPDEST PUSH1 0x40 MLOAD DUP1 SWAP2 SUB SWAP1 REVERT JUMPDEST PUSH1 0x2 PUSH8 0xFFFFFFFFFFFFFFFF DUP2 GT ISZERO PUSH2 0x896 JUMPI PUSH2 0x895 PUSH2 0x30E3 JUMP JUMPDEST JUMPDEST PUSH1 0x40 MLOAD SWAP1 DUP1 DUP3 MSTORE DUP1 PUSH1 0x20 MUL PUSH1 0x20 ADD DUP3 ADD PUSH1 0x40 MSTORE DUP1 ISZERO PUSH2 0x8C4 JUMPI DUP2 PUSH1 0x20 ADD PUSH1 0x20 DUP3 MUL DUP1 CALLDATASIZE DUP4 CALLDATACOPY DUP1 DUP3 ADD SWAP2 POP POP SWAP1 POP JUMPDEST POP SWAP2 POP DUP8 DUP3 PUSH1 0x0 DUP2 MLOAD DUP2 LT PUSH2 0x8DC JUMPI PUSH2 0x8DB PUSH2 0x3048 JUMP JUMPDEST JUMPDEST PUSH1 0x20 MUL PUSH1 0x20 ADD ADD DUP2 DUP2 MSTORE POP POP PUSH1 0x0 PUSH32 0x0 PUSH20 0xFFFFFFFFFFFFFFFFFFFFFFFFFFFFFFFFFFFFFFFF AND DUP8 DUP8 PUSH1 0x0 DUP2 DUP2 LT PUSH2 0x935 JUMPI PUSH2 0x934 PUSH2 0x3048 JUMP JUMPDEST JUMPDEST SWAP1 POP PUSH1 0x20 MUL ADD PUSH1 0x20 DUP2 ADD SWAP1 PUSH2 0x94A SWAP2 SWAP1 PUSH2 0x2B0E JUMP JUMPDEST PUSH20 0xFFFFFFFFFFFFFFFFFFFFFFFFFFFFFFFFFFFFFFFF AND EQ SWAP1 POP PUSH1 0x0 DUP2 PUSH2 0x972 JUMPI PUSH1 0x6 SLOAD PUSH2 0x976 JUMP JUMPDEST PUSH1 0x5 SLOAD JUMPDEST SWAP1 POP PUSH1 0x0 DUP3 PUSH2 0x987 JUMPI PUSH1 0x5 SLOAD PUSH2 0x98B JUMP JUMPDEST PUSH1 0x6 SLOAD JUMPDEST SWAP1 POP PUSH1 0x0 PUSH2 0x99A DUP13 DUP5 DUP5 PUSH2 0x3D8 JUMP JUMPDEST SWAP1 POP DUP1 DUP7 PUSH1 0x1 DUP2 MLOAD DUP2 LT PUSH2 0x9B1 JUMPI PUSH2 0x9B0 PUSH2 0x3048 JUMP JUMPDEST JUMPDEST PUSH1 0x20 MUL PUSH1 0x20 ADD ADD DUP2 DUP2 MSTORE POP POP DUP11 DUP2 LT ISZERO PUSH2 0xA00 JUMPI PUSH1 0x40 MLOAD PUSH32 0x8C379A000000000000000000000000000000000000000000000000000000000 DUP2 MSTORE PUSH1 0x4 ADD PUSH2 0x9F7 SWAP1 PUSH2 0x315E JUMP JUMPDEST PUSH1 0x40 MLOAD DUP1 SWAP2 SUB SWAP1 REVERT JUMPDEST DUP10 DUP10 PUSH1 0x0 DUP2 DUP2 LT PUSH2 0xA14 JUMPI PUSH2 0xA13 PUSH2 0x3048 JUMP JUMPDEST JUMPDEST SWAP1 POP PUSH1 0x20 MUL ADD PUSH1 0x20 DUP2 ADD SWAP1 PUSH2 0xA29 SWAP2 SWAP1 PUSH2 0x2B0E JUMP JUMPDEST PUSH20 0xFFFFFFFFFFFFFFFFFFFFFFFFFFFFFFFFFFFFFFFF AND PUSH4 0x23B872DD CALLER ADDRESS DUP16 PUSH1 0x40 MLOAD DUP5 PUSH4 0xFFFFFFFF AND PUSH1 0xE0 SHL DUP2 MSTORE PUSH1 0x4 ADD PUSH2 0xA65 SWAP4 SWAP3 SWAP2 SWAP1 PUSH2 0x317E JUMP JUMPDEST PUSH1 0x20 PUSH1 0x40 MLOAD DUP1 DUP4 SUB DUP2 PUSH1 0x0 DUP8 GAS CALL ISZERO DUP1 ISZERO PUSH2 0xA84 JUMPI RETURNDATASIZE PUSH1 0x0 DUP1 RETURNDATACOPY RETURNDATASIZE PUSH1 0x0 REVERT JUMPDEST POP POP POP POP PUSH1 0x40 MLOAD RETURNDATASIZE PUSH1 0x1F NOT PUSH1 0x1F DUP3 ADD AND DUP3 ADD DUP1 PUSH1 0x40 MSTORE POP DUP2 ADD SWAP1 PUSH2 0xAA8 SWAP2 SWAP1 PUSH2 0x31E1 JUMP JUMPDEST POP DUP4 ISZERO PUSH2 0xAE6 JUMPI DUP12 PUSH1 0x5 PUSH1 0x0 DUP3 DUP3 SLOAD PUSH2 0xAC1 SWAP2 SWAP1 PUSH2 0x2E7C JUMP JUMPDEST SWAP3 POP POP DUP2 SWAP1 SSTORE POP DUP1 PUSH1 0x6 PUSH1 0x0 DUP3 DUP3 SLOAD PUSH2 0xADA SWAP2 SWAP1 PUSH2 0x320E JUMP JUMPDEST SWAP3 POP POP DUP2 SWAP1 SSTORE POP PUSH2 0xB19 JUMP JUMPDEST DUP12 PUSH1 0x6 PUSH1 0x0 DUP3 DUP3 SLOAD PUSH2 0xAF8 SWAP2 SWAP1 PUSH2 0x2E7C JUMP JUMPDEST SWAP3 POP POP DUP2 SWAP1 SSTORE POP DUP1 PUSH1 0x5 PUSH1 0x0 DUP3 DUP3 SLOAD PUSH2 0xB11 SWAP2 SWAP1 PUSH2 0x320E JUMP JUMPDEST SWAP3 POP POP DUP2 SWAP1 SSTORE POP JUMPDEST DUP10 DUP10 PUSH1 0x1 DUP2 DUP2 LT PUSH2 0xB2D JUMPI PUSH2 0xB2C PUSH2 0x3048 JUMP JUMPDEST JUMPDEST SWAP1 POP PUSH1 0x20 MUL ADD PUSH1 0x20 DUP2 ADD SWAP1 PUSH2 0xB42 SWAP2 SWAP1 PUSH2 0x2B0E JUMP JUMPDEST PUSH20 0xFFFFFFFFFFFFFFFFFFFFFFFFFFFFFFFFFFFFFFFF AND PUSH4 0xA9059CBB DUP10 DUP4 PUSH1 0x40 MLOAD DUP4 PUSH4 0xFFFFFFFF AND PUSH1 0xE0 SHL DUP2 MSTORE PUSH1 0x4 ADD PUSH2 0xB7C SWAP3 SWAP2 SWAP1 PUSH2 0x3242 JUMP JUMPDEST PUSH1 0x20 PUSH1 0x40 MLOAD DUP1 DUP4 SUB DUP2 PUSH1 0x0 DUP8 GAS CALL ISZERO DUP1 ISZERO PUSH2 0xB9B JUMPI RETURNDATASIZE PUSH1 0x0 DUP1 RETURNDATACOPY RETURNDATASIZE PUSH1 0x0 REVERT JUMPDEST POP POP POP POP PUSH1 0x40 MLOAD RETURNDATASIZE PUSH1 0x1F NOT PUSH1 0x1F DUP3 ADD AND DUP3 ADD DUP1 PUSH1 0x40 MSTORE POP DUP2 ADD SWAP1 PUSH2 0xBBF SWAP2 SWAP1 PUSH2 0x31E1 JUMP JUMPDEST POP DUP10 DUP10 PUSH1 0x1 DUP2 DUP2 LT PUSH2 0xBD4 JUMPI PUSH2 0xBD3 PUSH2 0x3048 JUMP JUMPDEST JUMPDEST SWAP1 POP PUSH1 0x20 MUL ADD PUSH1 0x20 DUP2 ADD SWAP1 PUSH2 0xBE9 SWAP2 SWAP1 PUSH2 0x2B0E JUMP JUMPDEST PUSH20 0xFFFFFFFFFFFFFFFFFFFFFFFFFFFFFFFFFFFFFFFF AND DUP11 DUP11 PUSH1 0x0 DUP2 DUP2 LT PUSH2 0xC13 JUMPI PUSH2 0xC12 PUSH2 0x3048 JUMP JUMPDEST JUMPDEST SWAP1 POP PUSH1 0x20 MUL ADD PUSH1 0x20 DUP2 ADD SWAP1 PUSH2 0xC28 SWAP2 SWAP1 PUSH2 0x2B0E JUMP JUMPDEST PUSH20 0xFFFFFFFFFFFFFFFFFFFFFFFFFFFFFFFFFFFFFFFF AND PUSH32 0xFA2DDA1CC1B86E41239702756B13EFFBC1A092B5C57E3AD320FBE4F3B13FE235 DUP15 DUP5 PUSH1 0x40 MLOAD PUSH2 0xC6F SWAP3 SWAP2 SWAP1 PUSH2 0x2C1D JUMP JUMPDEST PUSH1 0x40 MLOAD DUP1 SWAP2 SUB SWAP1 LOG3 POP POP POP POP POP SWAP7 SWAP6 POP POP POP POP POP POP JUMP JUMPDEST PUSH32 0x0 DUP2 JUMP JUMPDEST PUSH1 0x0 DUP1 PUSH1 0x0 DUP4 PUSH20 0xFFFFFFFFFFFFFFFFFFFFFFFFFFFFFFFFFFFFFFFF AND PUSH20 0xFFFFFFFFFFFFFFFFFFFFFFFFFFFFFFFFFFFFFFFF AND DUP2 MSTORE PUSH1 0x20 ADD SWAP1 DUP2 MSTORE PUSH1 0x20 ADD PUSH1 0x0 KECCAK256 SLOAD SWAP1 POP SWAP2 SWAP1 POP JUMP JUMPDEST PUSH1 0x60 PUSH1 0x4 DUP1 SLOAD PUSH2 0xD01 SWAP1 PUSH2 0x2F3F JUMP JUMPDEST DUP1 PUSH1 0x1F ADD PUSH1 0x20 DUP1 SWAP2 DIV MUL PUSH1 0x20 ADD PUSH1 0x40 MLOAD SWAP1 DUP2 ADD PUSH1 0x40 MSTORE DUP1 SWAP3 SWAP2 SWAP1 DUP2 DUP2 MSTORE PUSH1 0x20 ADD DUP3 DUP1 SLOAD PUSH2 0xD2D SWAP1 PUSH2 0x2F3F JUMP JUMPDEST DUP1 ISZERO PUSH2 0xD7A JUMPI DUP1 PUSH1 0x1F LT PUSH2 0xD4F JUMPI PUSH2 0x100 DUP1 DUP4 SLOAD DIV MUL DUP4 MSTORE SWAP2 PUSH1 0x20 ADD SWAP2 PUSH2 0xD7A JUMP JUMPDEST DUP3 ADD SWAP2 SWAP1 PUSH1 0x0 MSTORE PUSH1 0x20 PUSH1 0x0 KECCAK256 SWAP1 JUMPDEST DUP2 SLOAD DUP2 MSTORE SWAP1 PUSH1 0x1 ADD SWAP1 PUSH1 0x20 ADD DUP1 DUP4 GT PUSH2 0xD5D JUMPI DUP3 SWAP1 SUB PUSH1 0x1F AND DUP3 ADD SWAP2 JUMPDEST POP POP POP POP POP SWAP1 POP SWAP1 JUMP JUMPDEST PUSH1 0x0 DUP1 PUSH2 0xD8F PUSH2 0x1E4F JUMP JUMPDEST SWAP1 POP PUSH2 0xD9C DUP2 DUP6 DUP6 PUSH2 0x1EFE JUMP JUMPDEST PUSH1 0x1 SWAP2 POP POP SWAP3 SWAP2 POP POP JUMP JUMPDEST PUSH1 0x0 PUSH32 0x0 PUSH20 0xFFFFFFFFFFFFFFFFFFFFFFFFFFFFFFFFFFFFFFFF AND DUP4 PUSH20 0xFFFFFFFFFFFFFFFFFFFFFFFFFFFFFFFFFFFFFFFF AND EQ DUP1 ISZERO PUSH2 0xE4F JUMPI POP PUSH32 0x0 PUSH20 0xFFFFFFFFFFFFFFFFFFFFFFFFFFFFFFFFFFFFFFFF AND DUP3 PUSH20 0xFFFFFFFFFFFFFFFFFFFFFFFFFFFFFFFFFFFFFFFF AND EQ JUMPDEST DUP1 PUSH2 0xEFC JUMPI POP PUSH32 0x0 PUSH20 0xFFFFFFFFFFFFFFFFFFFFFFFFFFFFFFFFFFFFFFFF AND DUP4 PUSH20 0xFFFFFFFFFFFFFFFFFFFFFFFFFFFFFFFFFFFFFFFF AND EQ DUP1 ISZERO PUSH2 0xEFB JUMPI POP PUSH32 0x0 PUSH20 0xFFFFFFFFFFFFFFFFFFFFFFFFFFFFFFFFFFFFFFFF AND DUP3 PUSH20 0xFFFFFFFFFFFFFFFFFFFFFFFFFFFFFFFFFFFFFFFF AND EQ JUMPDEST JUMPDEST PUSH2 0xF3B JUMPI PUSH1 0x40 MLOAD PUSH32 0x8C379A000000000000000000000000000000000000000000000000000000000 DUP2 MSTORE PUSH1 0x4 ADD PUSH2 0xF32 SWAP1 PUSH2 0x32B7 JUMP JUMPDEST PUSH1 0x40 MLOAD DUP1 SWAP2 SUB SWAP1 REVERT JUMPDEST PUSH1 0x0 PUSH1 0x5 SLOAD GT DUP1 ISZERO PUSH2 0xF4F JUMPI POP PUSH1 0x0 PUSH1 0x6 SLOAD GT JUMPDEST PUSH2 0xF8E JUMPI PUSH1 0x40 MLOAD PUSH32 0x8C379A000000000000000000000000000000000000000000000000000000000 DUP2 MSTORE PUSH1 0x4 ADD PUSH2 0xF85 SWAP1 PUSH2 0x2DEB JUMP JUMPDEST PUSH1 0x40 MLOAD DUP1 SWAP2 SUB SWAP1 REVERT JUMPDEST PUSH32 0x0 PUSH20 0xFFFFFFFFFFFFFFFFFFFFFFFFFFFFFFFFFFFFFFFF AND DUP4 PUSH20 0xFFFFFFFFFFFFFFFFFFFFFFFFFFFFFFFFFFFFFFFF AND SUB PUSH2 0x100B JUMPI PUSH1 0x5 SLOAD PUSH8 0xDE0B6B3A7640000 PUSH1 0x6 SLOAD PUSH2 0xFFA SWAP2 SWAP1 PUSH2 0x2E3A JUMP JUMPDEST PUSH2 0x1004 SWAP2 SWAP1 PUSH2 0x2EDF JUMP JUMPDEST SWAP1 POP PUSH2 0x1031 JUMP JUMPDEST PUSH1 0x6 SLOAD PUSH8 0xDE0B6B3A7640000 PUSH1 0x5 SLOAD PUSH2 0x1024 SWAP2 SWAP1 PUSH2 0x2E3A JUMP JUMPDEST PUSH2 0x102E SWAP2 SWAP1 PUSH2 0x2EDF JUMP JUMPDEST SWAP1 POP JUMPDEST SWAP3 SWAP2 POP POP JUMP JUMPDEST PUSH1 0x0 DUP1 DUP3 TIMESTAMP DUP2 LT ISZERO PUSH2 0x107E JUMPI PUSH1 0x40 MLOAD PUSH32 0x8C379A000000000000000000000000000000000000000000000000000000000 DUP2 MSTORE PUSH1 0x4 ADD PUSH2 0x1075 SWAP1 PUSH2 0x2FBC JUMP JUMPDEST PUSH1 0x40 MLOAD DUP1 SWAP2 SUB SWAP1 REVERT JUMPDEST PUSH32 0x0 PUSH20 0xFFFFFFFFFFFFFFFFFFFFFFFFFFFFFFFFFFFFFFFF AND DUP11 PUSH20 0xFFFFFFFFFFFFFFFFFFFFFFFFFFFFFFFFFFFFFFFF AND EQ DUP1 ISZERO PUSH2 0x1124 JUMPI POP PUSH32 0x0 PUSH20 0xFFFFFFFFFFFFFFFFFFFFFFFFFFFFFFFFFFFFFFFF AND DUP10 PUSH20 0xFFFFFFFFFFFFFFFFFFFFFFFFFFFFFFFFFFFFFFFF AND EQ JUMPDEST DUP1 PUSH2 0x11D1 JUMPI POP PUSH32 0x0 PUSH20 0xFFFFFFFFFFFFFFFFFFFFFFFFFFFFFFFFFFFFFFFF AND DUP11 PUSH20 0xFFFFFFFFFFFFFFFFFFFFFFFFFFFFFFFFFFFFFFFF AND EQ DUP1 ISZERO PUSH2 0x11D0 JUMPI POP PUSH32 0x0 PUSH20 0xFFFFFFFFFFFFFFFFFFFFFFFFFFFFFFFFFFFFFFFF AND DUP10 PUSH20 0xFFFFFFFFFFFFFFFFFFFFFFFFFFFFFFFFFFFFFFFF AND EQ JUMPDEST JUMPDEST PUSH2 0x1210 JUMPI PUSH1 0x40 MLOAD PUSH32 0x8C379A000000000000000000000000000000000000000000000000000000000 DUP2 MSTORE PUSH1 0x4 ADD PUSH2 0x1207 SWAP1 PUSH2 0x32B7 JUMP JUMPDEST PUSH1 0x40 MLOAD DUP1 SWAP2 SUB SWAP1 REVERT JUMPDEST PUSH32 0x0 PUSH20 0xFFFFFFFFFFFFFFFFFFFFFFFFFFFFFFFFFFFFFFFF AND DUP11 PUSH20 0xFFFFFFFFFFFFFFFFFFFFFFFFFFFFFFFFFFFFFFFF AND EQ PUSH2 0x126E JUMPI DUP6 DUP8 DUP1 SWAP8 POP DUP2 SWAP9 POP POP POP JUMPDEST PUSH1 0x0 PUSH2 0x1278 PUSH2 0x57B JUMP JUMPDEST SWAP1 POP DUP1 PUSH1 0x5 SLOAD DUP11 PUSH2 0x1289 SWAP2 SWAP1 PUSH2 0x2E3A JUMP JUMPDEST PUSH2 0x1293 SWAP2 SWAP1 PUSH2 0x2EDF JUMP JUMPDEST SWAP4 POP DUP1 PUSH1 0x6 SLOAD DUP11 PUSH2 0x12A4 SWAP2 SWAP1 PUSH2 0x2E3A JUMP JUMPDEST PUSH2 0x12AE SWAP2 SWAP1 PUSH2 0x2EDF JUMP JUMPDEST SWAP3 POP DUP8 DUP5 LT ISZERO PUSH2 0x12F3 JUMPI PUSH1 0x40 MLOAD PUSH32 0x8C379A000000000000000000000000000000000000000000000000000000000 DUP2 MSTORE PUSH1 0x4 ADD PUSH2 0x12EA SWAP1 PUSH2 0x3323 JUMP JUMPDEST PUSH1 0x40 MLOAD DUP1 SWAP2 SUB SWAP1 REVERT JUMPDEST DUP7 DUP4 LT ISZERO PUSH2 0x1336 JUMPI PUSH1 0x40 MLOAD PUSH32 0x8C379A000000000000000000000000000000000000000000000000000000000 DUP2 MSTORE PUSH1 0x4 ADD PUSH2 0x132D SWAP1 PUSH2 0x338F JUMP JUMPDEST PUSH1 0x40 MLOAD DUP1 SWAP2 SUB SWAP1 REVERT JUMPDEST PUSH2 0x1340 CALLER DUP11 PUSH2 0x1FF2 JUMP JUMPDEST DUP4 PUSH1 0x5 PUSH1 0x0 DUP3 DUP3 SLOAD PUSH2 0x1352 SWAP2 SWAP1 PUSH2 0x320E JUMP JUMPDEST SWAP3 POP POP DUP2 SWAP1 SSTORE POP DUP3 PUSH1 0x6 PUSH1 0x0 DUP3 DUP3 SLOAD PUSH2 0x136B SWAP2 SWAP1 PUSH2 0x320E JUMP JUMPDEST SWAP3 POP POP DUP2 SWAP1 SSTORE POP PUSH32 0x0 PUSH20 0xFFFFFFFFFFFFFFFFFFFFFFFFFFFFFFFFFFFFFFFF AND PUSH4 0xA9059CBB DUP8 DUP7 PUSH1 0x40 MLOAD DUP4 PUSH4 0xFFFFFFFF AND PUSH1 0xE0 SHL DUP2 MSTORE PUSH1 0x4 ADD PUSH2 0x13CD SWAP3 SWAP2 SWAP1 PUSH2 0x3242 JUMP JUMPDEST PUSH1 0x20 PUSH1 0x40 MLOAD DUP1 DUP4 SUB DUP2 PUSH1 0x0 DUP8 GAS CALL ISZERO DUP1 ISZERO PUSH2 0x13EC JUMPI RETURNDATASIZE PUSH1 0x0 DUP1 RETURNDATACOPY RETURNDATASIZE PUSH1 0x0 REVERT JUMPDEST POP POP POP POP PUSH1 0x40 MLOAD RETURNDATASIZE PUSH1 0x1F NOT PUSH1 0x1F DUP3 ADD AND DUP3 ADD DUP1 PUSH1 0x40 MSTORE POP DUP2 ADD SWAP1 PUSH2 0x1410 SWAP2 SWAP1 PUSH2 0x31E1 JUMP JUMPDEST POP PUSH32 0x0 PUSH20 0xFFFFFFFFFFFFFFFFFFFFFFFFFFFFFFFFFFFFFFFF AND PUSH4 0xA9059CBB DUP8 DUP6 PUSH1 0x40 MLOAD DUP4 PUSH4 0xFFFFFFFF AND PUSH1 0xE0 SHL DUP2 MSTORE PUSH1 0x4 ADD PUSH2 0x146C SWAP3 SWAP2 SWAP1 PUSH2 0x3242 JUMP JUMPDEST PUSH1 0x20 PUSH1 0x40 MLOAD DUP1 DUP4 SUB DUP2 PUSH1 0x0 DUP8 GAS CALL ISZERO DUP1 ISZERO PUSH2 0x148B JUMPI RETURNDATASIZE PUSH1 0x0 DUP1 RETURNDATACOPY RETURNDATASIZE PUSH1 0x0 REVERT JUMPDEST POP POP POP POP PUSH1 0x40 MLOAD RETURNDATASIZE PUSH1 0x1F NOT PUSH1 0x1F DUP3 ADD AND DUP3 ADD DUP1 PUSH1 0x40 MSTORE POP DUP2 ADD SWAP1 PUSH2 0x14AF SWAP2 SWAP1 PUSH2 0x31E1 JUMP JUMPDEST POP PUSH32 0x0 PUSH20 0xFFFFFFFFFFFFFFFFFFFFFFFFFFFFFFFFFFFFFFFF AND PUSH32 0x0 PUSH20 0xFFFFFFFFFFFFFFFFFFFFFFFFFFFFFFFFFFFFFFFF AND PUSH32 0xBC7D19D505C7EC4DB83F3B51F19FB98C4C8A99922E7839D1EE608DFBEE29501B DUP7 DUP7 DUP14 PUSH1 0x40 MLOAD PUSH2 0x1551 SWAP4 SWAP3 SWAP2 SWAP1 PUSH2 0x2CFC JUMP JUMPDEST PUSH1 0x40 MLOAD DUP1 SWAP2 SUB SWAP1 LOG3 POP POP SWAP8 POP SWAP8 SWAP6 POP POP POP POP POP POP JUMP JUMPDEST PUSH1 0x0 DUP1 PUSH32 0x0 PUSH20 0xFFFFFFFFFFFFFFFFFFFFFFFFFFFFFFFFFFFFFFFF AND DUP5 PUSH20 0xFFFFFFFFFFFFFFFFFFFFFFFFFFFFFFFFFFFFFFFF AND EQ DUP1 ISZERO PUSH2 0x1610 JUMPI POP PUSH32 0x0 PUSH20 0xFFFFFFFFFFFFFFFFFFFFFFFFFFFFFFFFFFFFFFFF AND DUP4 PUSH20 0xFFFFFFFFFFFFFFFFFFFFFFFFFFFFFFFFFFFFFFFF AND EQ JUMPDEST DUP1 PUSH2 0x16BD JUMPI POP PUSH32 0x0 PUSH20 0xFFFFFFFFFFFFFFFFFFFFFFFFFFFFFFFFFFFFFFFF AND DUP5 PUSH20 0xFFFFFFFFFFFFFFFFFFFFFFFFFFFFFFFFFFFFFFFF AND EQ DUP1 ISZERO PUSH2 0x16BC JUMPI POP PUSH32 0x0 PUSH20 0xFFFFFFFFFFFFFFFFFFFFFFFFFFFFFFFFFFFFFFFF AND DUP4 PUSH20 0xFFFFFFFFFFFFFFFFFFFFFFFFFFFFFFFFFFFFFFFF AND EQ JUMPDEST JUMPDEST PUSH2 0x16FC JUMPI PUSH1 0x40 MLOAD PUSH32 0x8C379A000000000000000000000000000000000000000000000000000000000 DUP2 MSTORE PUSH1 0x4 ADD PUSH2 0x16F3 SWAP1 PUSH2 0x32B7 JUMP JUMPDEST PUSH1 0x40 MLOAD DUP1 SWAP2 SUB SWAP1 REVERT JUMPDEST PUSH32 0x0 PUSH20 0xFFFFFFFFFFFFFFFFFFFFFFFFFFFFFFFFFFFFFFFF AND DUP5 PUSH20 0xFFFFFFFFFFFFFFFFFFFFFFFFFFFFFFFFFFFFFFFF AND SUB PUSH2 0x175E JUMPI PUSH1 0x5 SLOAD PUSH1 0x6 SLOAD SWAP2 POP SWAP2 POP PUSH2 0x1769 JUMP JUMPDEST PUSH1 0x6 SLOAD PUSH1 0x5 SLOAD SWAP2 POP SWAP2 POP JUMPDEST SWAP3 POP SWAP3 SWAP1 POP JUMP JUMPDEST PUSH1 0x0 PUSH1 0x1 PUSH1 0x0 DUP5 PUSH20 0xFFFFFFFFFFFFFFFFFFFFFFFFFFFFFFFFFFFFFFFF AND PUSH20 0xFFFFFFFFFFFFFFFFFFFFFFFFFFFFFFFFFFFFFFFF AND DUP2 MSTORE PUSH1 0x20 ADD SWAP1 DUP2 MSTORE PUSH1 0x20 ADD PUSH1 0x0 KECCAK256 PUSH1 0x0 DUP4 PUSH20 0xFFFFFFFFFFFFFFFFFFFFFFFFFFFFFFFFFFFFFFFF AND PUSH20 0xFFFFFFFFFFFFFFFFFFFFFFFFFFFFFFFFFFFFFFFF AND DUP2 MSTORE PUSH1 0x20 ADD SWAP1 DUP2 MSTORE PUSH1 0x20 ADD PUSH1 0x0 KECCAK256 SLOAD SWAP1 POP SWAP3 SWAP2 POP POP JUMP JUMPDEST PUSH1 0x0 DUP1 PUSH1 0x0 DUP4 TIMESTAMP DUP2 LT ISZERO PUSH2 0x1840 JUMPI PUSH1 0x40 MLOAD PUSH32 0x8C379A000000000000000000000000000000000000000000000000000000000 DUP2 MSTORE PUSH1 0x4 ADD PUSH2 0x1837 SWAP1 PUSH2 0x2FBC JUMP JUMPDEST PUSH1 0x40 MLOAD DUP1 SWAP2 SUB SWAP1 REVERT JUMPDEST PUSH32 0x0 PUSH20 0xFFFFFFFFFFFFFFFFFFFFFFFFFFFFFFFFFFFFFFFF AND DUP13 PUSH20 0xFFFFFFFFFFFFFFFFFFFFFFFFFFFFFFFFFFFFFFFF AND EQ DUP1 ISZERO PUSH2 0x18E6 JUMPI POP PUSH32 0x0 PUSH20 0xFFFFFFFFFFFFFFFFFFFFFFFFFFFFFFFFFFFFFFFF AND DUP12 PUSH20 0xFFFFFFFFFFFFFFFFFFFFFFFFFFFFFFFFFFFFFFFF AND EQ JUMPDEST DUP1 PUSH2 0x1993 JUMPI POP PUSH32 0x0 PUSH20 0xFFFFFFFFFFFFFFFFFFFFFFFFFFFFFFFFFFFFFFFF AND DUP13 PUSH20 0xFFFFFFFFFFFFFFFFFFFFFFFFFFFFFFFFFFFFFFFF AND EQ DUP1 ISZERO PUSH2 0x1992 JUMPI POP PUSH32 0x0 PUSH20 0xFFFFFFFFFFFFFFFFFFFFFFFFFFFFFFFFFFFFFFFF AND DUP12 PUSH20 0xFFFFFFFFFFFFFFFFFFFFFFFFFFFFFFFFFFFFFFFF AND EQ JUMPDEST JUMPDEST PUSH2 0x19D2 JUMPI PUSH1 0x40 MLOAD PUSH32 0x8C379A000000000000000000000000000000000000000000000000000000000 DUP2 MSTORE PUSH1 0x4 ADD PUSH2 0x19C9 SWAP1 PUSH2 0x32B7 JUMP JUMPDEST PUSH1 0x40 MLOAD DUP1 SWAP2 SUB SWAP1 REVERT JUMPDEST PUSH32 0x0 PUSH20 0xFFFFFFFFFFFFFFFFFFFFFFFFFFFFFFFFFFFFFFFF AND DUP13 PUSH20 0xFFFFFFFFFFFFFFFFFFFFFFFFFFFFFFFFFFFFFFFF AND EQ PUSH2 0x1A3A JUMPI DUP9 DUP11 DUP1 SWAP11 POP DUP2 SWAP12 POP POP POP DUP7 DUP9 DUP1 SWAP9 POP DUP2 SWAP10 POP POP POP JUMPDEST PUSH1 0x0 PUSH1 0x5 SLOAD EQ DUP1 ISZERO PUSH2 0x1A4E JUMPI POP PUSH1 0x0 PUSH1 0x6 SLOAD EQ JUMPDEST ISZERO PUSH2 0x1A5E JUMPI DUP10 SWAP4 POP DUP9 SWAP3 POP PUSH2 0x1B69 JUMP JUMPDEST PUSH1 0x0 PUSH2 0x1A6F DUP12 PUSH1 0x5 SLOAD PUSH1 0x6 SLOAD PUSH2 0x2074 JUMP JUMPDEST SWAP1 POP DUP10 DUP2 GT PUSH2 0x1AC6 JUMPI DUP8 DUP2 LT ISZERO PUSH2 0x1ABB JUMPI PUSH1 0x40 MLOAD PUSH32 0x8C379A000000000000000000000000000000000000000000000000000000000 DUP2 MSTORE PUSH1 0x4 ADD PUSH2 0x1AB2 SWAP1 PUSH2 0x338F JUMP JUMPDEST PUSH1 0x40 MLOAD DUP1 SWAP2 SUB SWAP1 REVERT JUMPDEST DUP11 SWAP5 POP DUP1 SWAP4 POP PUSH2 0x1B67 JUMP JUMPDEST PUSH1 0x0 PUSH2 0x1AD7 DUP12 PUSH1 0x6 SLOAD PUSH1 0x5 SLOAD PUSH2 0x2074 JUMP JUMPDEST SWAP1 POP DUP12 DUP2 GT ISZERO PUSH2 0x1B1C JUMPI PUSH1 0x40 MLOAD PUSH32 0x8C379A000000000000000000000000000000000000000000000000000000000 DUP2 MSTORE PUSH1 0x4 ADD PUSH2 0x1B13 SWAP1 PUSH2 0x33FB JUMP JUMPDEST PUSH1 0x40 MLOAD DUP1 SWAP2 SUB SWAP1 REVERT JUMPDEST DUP10 DUP2 LT ISZERO PUSH2 0x1B5F JUMPI PUSH1 0x40 MLOAD PUSH32 0x8C379A000000000000000000000000000000000000000000000000000000000 DUP2 MSTORE PUSH1 0x4 ADD PUSH2 0x1B56 SWAP1 PUSH2 0x3323 JUMP JUMPDEST PUSH1 0x40 MLOAD DUP1 SWAP2 SUB SWAP1 REVERT JUMPDEST DUP1 SWAP6 POP DUP11 SWAP5 POP POP JUMPDEST POP JUMPDEST PUSH32 0x0 PUSH20 0xFFFFFFFFFFFFFFFFFFFFFFFFFFFFFFFFFFFFFFFF AND PUSH4 0x23B872DD CALLER ADDRESS DUP8 PUSH1 0x40 MLOAD DUP5 PUSH4 0xFFFFFFFF AND PUSH1 0xE0 SHL DUP2 MSTORE PUSH1 0x4 ADD PUSH2 0x1BC6 SWAP4 SWAP3 SWAP2 SWAP1 PUSH2 0x317E JUMP JUMPDEST PUSH1 0x20 PUSH1 0x40 MLOAD DUP1 DUP4 SUB DUP2 PUSH1 0x0 DUP8 GAS CALL ISZERO DUP1 ISZERO PUSH2 0x1BE5 JUMPI RETURNDATASIZE PUSH1 0x0 DUP1 RETURNDATACOPY RETURNDATASIZE PUSH1 0x0 REVERT JUMPDEST POP POP POP POP PUSH1 0x40 MLOAD RETURNDATASIZE PUSH1 0x1F NOT PUSH1 0x1F DUP3 ADD AND DUP3 ADD DUP1 PUSH1 0x40 MSTORE POP DUP2 ADD SWAP1 PUSH2 0x1C09 SWAP2 SWAP1 PUSH2 0x31E1 JUMP JUMPDEST POP PUSH32 0x0 PUSH20 0xFFFFFFFFFFFFFFFFFFFFFFFFFFFFFFFFFFFFFFFF AND PUSH4 0x23B872DD CALLER ADDRESS DUP7 PUSH1 0x40 MLOAD DUP5 PUSH4 0xFFFFFFFF AND PUSH1 0xE0 SHL DUP2 MSTORE PUSH1 0x4 ADD PUSH2 0x1C67 SWAP4 SWAP3 SWAP2 SWAP1 PUSH2 0x317E JUMP JUMPDEST PUSH1 0x20 PUSH1 0x40 MLOAD DUP1 DUP4 SUB DUP2 PUSH1 0x0 DUP8 GAS CALL ISZERO DUP1 ISZERO PUSH2 0x1C86 JUMPI RETURNDATASIZE PUSH1 0x0 DUP1 RETURNDATACOPY RETURNDATASIZE PUSH1 0x0 REVERT JUMPDEST POP POP POP POP PUSH1 0x40 MLOAD RETURNDATASIZE PUSH1 0x1F NOT PUSH1 0x1F DUP3 ADD AND DUP3 ADD DUP1 PUSH1 0x40 MSTORE POP DUP2 ADD SWAP1 PUSH2 0x1CAA SWAP2 SWAP1 PUSH2 0x31E1 JUMP JUMPDEST POP DUP4 PUSH1 0x5 PUSH1 0x0 DUP3 DUP3 SLOAD PUSH2 0x1CBD SWAP2 SWAP1 PUSH2 0x2E7C JUMP JUMPDEST SWAP3 POP POP DUP2 SWAP1 SSTORE POP DUP3 PUSH1 0x6 PUSH1 0x0 DUP3 DUP3 SLOAD PUSH2 0x1CD6 SWAP2 SWAP1 PUSH2 0x2E7C JUMP JUMPDEST SWAP3 POP POP DUP2 SWAP1 SSTORE POP PUSH1 0x0 PUSH2 0x1CE7 PUSH2 0x57B JUMP JUMPDEST SWAP1 POP PUSH1 0x0 DUP2 SUB PUSH2 0x1D0C JUMPI PUSH2 0x1D05 DUP5 DUP7 PUSH2 0x1D00 SWAP2 SWAP1 PUSH2 0x2E3A JUMP JUMPDEST PUSH2 0x2127 JUMP JUMPDEST SWAP3 POP PUSH2 0x1D49 JUMP JUMPDEST PUSH2 0x1D46 PUSH1 0x5 SLOAD DUP3 DUP8 PUSH2 0x1D1E SWAP2 SWAP1 PUSH2 0x2E3A JUMP JUMPDEST PUSH2 0x1D28 SWAP2 SWAP1 PUSH2 0x2EDF JUMP JUMPDEST PUSH1 0x6 SLOAD DUP4 DUP8 PUSH2 0x1D37 SWAP2 SWAP1 PUSH2 0x2E3A JUMP JUMPDEST PUSH2 0x1D41 SWAP2 SWAP1 PUSH2 0x2EDF JUMP JUMPDEST PUSH2 0x21A1 JUMP JUMPDEST SWAP3 POP JUMPDEST PUSH1 0x0 DUP4 GT PUSH2 0x1D8C JUMPI PUSH1 0x40 MLOAD PUSH32 0x8C379A000000000000000000000000000000000000000000000000000000000 DUP2 MSTORE PUSH1 0x4 ADD PUSH2 0x1D83 SWAP1 PUSH2 0x2DEB JUMP JUMPDEST PUSH1 0x40 MLOAD DUP1 SWAP2 SUB SWAP1 REVERT JUMPDEST PUSH2 0x1D96 DUP8 DUP5 PUSH2 0x21BA JUMP JUMPDEST PUSH32 0x0 PUSH20 0xFFFFFFFFFFFFFFFFFFFFFFFFFFFFFFFFFFFFFFFF AND PUSH32 0x0 PUSH20 0xFFFFFFFFFFFFFFFFFFFFFFFFFFFFFFFFFFFFFFFF AND PUSH32 0x4A1A2A6176E9646D9E3157F7C2AB3C499F18337C0B0828CFB28E0A61DE4A11F7 DUP8 DUP8 DUP8 PUSH1 0x40 MLOAD PUSH2 0x1E37 SWAP4 SWAP3 SWAP2 SWAP1 PUSH2 0x2CFC JUMP JUMPDEST PUSH1 0x40 MLOAD DUP1 SWAP2 SUB SWAP1 LOG3 POP POP SWAP9 POP SWAP9 POP SWAP9 SWAP6 POP POP POP POP POP POP JUMP JUMPDEST PUSH1 0x0 CALLER SWAP1 POP SWAP1 JUMP JUMPDEST PUSH2 0x1E64 DUP4 DUP4 DUP4 PUSH1 0x1 PUSH2 0x223C JUMP JUMPDEST POP POP POP JUMP JUMPDEST PUSH1 0x0 PUSH2 0x1E75 DUP5 DUP5 PUSH2 0x1770 JUMP JUMPDEST SWAP1 POP PUSH32 0xFFFFFFFFFFFFFFFFFFFFFFFFFFFFFFFFFFFFFFFFFFFFFFFFFFFFFFFFFFFFFFFF DUP2 LT ISZERO PUSH2 0x1EF8 JUMPI DUP2 DUP2 LT ISZERO PUSH2 0x1EE8 JUMPI DUP3 DUP2 DUP4 PUSH1 0x40 MLOAD PUSH32 0xFB8F41B200000000000000000000000000000000000000000000000000000000 DUP2 MSTORE PUSH1 0x4 ADD PUSH2 0x1EDF SWAP4 SWAP3 SWAP2 SWAP1 PUSH2 0x341B JUMP JUMPDEST PUSH1 0x40 MLOAD DUP1 SWAP2 SUB SWAP1 REVERT JUMPDEST PUSH2 0x1EF7 DUP5 DUP5 DUP5 DUP5 SUB PUSH1 0x0 PUSH2 0x223C JUMP JUMPDEST JUMPDEST POP POP POP POP JUMP JUMPDEST PUSH1 0x0 PUSH20 0xFFFFFFFFFFFFFFFFFFFFFFFFFFFFFFFFFFFFFFFF AND DUP4 PUSH20 0xFFFFFFFFFFFFFFFFFFFFFFFFFFFFFFFFFFFFFFFF AND SUB PUSH2 0x1F70 JUMPI PUSH1 0x0 PUSH1 0x40 MLOAD PUSH32 0x96C6FD1E00000000000000000000000000000000000000000000000000000000 DUP2 MSTORE PUSH1 0x4 ADD PUSH2 0x1F67 SWAP2 SWAP1 PUSH2 0x288A JUMP JUMPDEST PUSH1 0x40 MLOAD DUP1 SWAP2 SUB SWAP1 REVERT JUMPDEST PUSH1 0x0 PUSH20 0xFFFFFFFFFFFFFFFFFFFFFFFFFFFFFFFFFFFFFFFF AND DUP3 PUSH20 0xFFFFFFFFFFFFFFFFFFFFFFFFFFFFFFFFFFFFFFFF AND SUB PUSH2 0x1FE2 JUMPI PUSH1 0x0 PUSH1 0x40 MLOAD PUSH32 0xEC442F0500000000000000000000000000000000000000000000000000000000 DUP2 MSTORE PUSH1 0x4 ADD PUSH2 0x1FD9 SWAP2 SWAP1 PUSH2 0x288A JUMP JUMPDEST PUSH1 0x40 MLOAD DUP1 SWAP2 SUB SWAP1 REVERT JUMPDEST PUSH2 0x1FED DUP4 DUP4 DUP4 PUSH2 0x2413 JUMP JUMPDEST POP POP POP JUMP JUMPDEST PUSH1 0x0 PUSH20 0xFFFFFFFFFFFFFFFFFFFFFFFFFFFFFFFFFFFFFFFF AND DUP3 PUSH20 0xFFFFFFFFFFFFFFFFFFFFFFFFFFFFFFFFFFFFFFFF AND SUB PUSH2 0x2064 JUMPI PUSH1 0x0 PUSH1 0x40 MLOAD PUSH32 0x96C6FD1E00000000000000000000000000000000000000000000000000000000 DUP2 MSTORE PUSH1 0x4 ADD PUSH2 0x205B SWAP2 SWAP1 PUSH2 0x288A JUMP JUMPDEST PUSH1 0x40 MLOAD DUP1 SWAP2 SUB SWAP1 REVERT JUMPDEST PUSH2 0x2070 DUP3 PUSH1 0x0 DUP4 PUSH2 0x2413 JUMP JUMPDEST POP POP JUMP JUMPDEST PUSH1 0x0 DUP1 DUP5 GT PUSH2 0x20B8 JUMPI PUSH1 0x40 MLOAD PUSH32 0x8C379A000000000000000000000000000000000000000000000000000000000 DUP2 MSTORE PUSH1 0x4 ADD PUSH2 0x20AF SWAP1 PUSH2 0x349E JUMP JUMPDEST PUSH1 0x40 MLOAD DUP1 SWAP2 SUB SWAP1 REVERT JUMPDEST PUSH1 0x0 DUP4 GT DUP1 ISZERO PUSH2 0x20C8 JUMPI POP PUSH1 0x0 DUP3 GT JUMPDEST PUSH2 0x2107 JUMPI PUSH1 0x40 MLOAD PUSH32 0x8C379A000000000000000000000000000000000000000000000000000000000 DUP2 MSTORE PUSH1 0x4 ADD PUSH2 0x20FE SWAP1 PUSH2 0x2DEB JUMP JUMPDEST PUSH1 0x40 MLOAD DUP1 SWAP2 SUB SWAP1 REVERT JUMPDEST DUP3 DUP3 DUP6 PUSH2 0x2114 SWAP2 SWAP1 PUSH2 0x2E3A JUMP JUMPDEST PUSH2 0x211E SWAP2 SWAP1 PUSH2 0x2EDF JUMP JUMPDEST SWAP1 POP SWAP4 SWAP3 POP POP POP JUMP JUMPDEST PUSH1 0x0 PUSH1 0x3 DUP3 GT ISZERO PUSH2 0x218E JUMPI DUP2 SWAP1 POP PUSH1 0x0 PUSH1 0x1 PUSH1 0x2 DUP5 PUSH2 0x2146 SWAP2 SWAP1 PUSH2 0x2EDF JUMP JUMPDEST PUSH2 0x2150 SWAP2 SWAP1 PUSH2 0x2E7C JUMP JUMPDEST SWAP1 POP JUMPDEST DUP2 DUP2 LT ISZERO PUSH2 0x2188 JUMPI DUP1 SWAP2 POP PUSH1 0x2 DUP2 DUP3 DUP6 PUSH2 0x216D SWAP2 SWAP1 PUSH2 0x2EDF JUMP JUMPDEST PUSH2 0x2177 SWAP2 SWAP1 PUSH2 0x2E7C JUMP JUMPDEST PUSH2 0x2181 SWAP2 SWAP1 PUSH2 0x2EDF JUMP JUMPDEST SWAP1 POP PUSH2 0x2153 JUMP JUMPDEST POP PUSH2 0x219C JUMP JUMPDEST PUSH1 0x0 DUP3 EQ PUSH2 0x219B JUMPI PUSH1 0x1 SWAP1 POP JUMPDEST JUMPDEST SWAP2 SWAP1 POP JUMP JUMPDEST PUSH1 0x0 DUP2 DUP4 LT PUSH2 0x21B0 JUMPI DUP2 PUSH2 0x21B2 JUMP JUMPDEST DUP3 JUMPDEST SWAP1 POP SWAP3 SWAP2 POP POP JUMP JUMPDEST PUSH1 0x0 PUSH20 0xFFFFFFFFFFFFFFFFFFFFFFFFFFFFFFFFFFFFFFFF AND DUP3 PUSH20 0xFFFFFFFFFFFFFFFFFFFFFFFFFFFFFFFFFFFFFFFF AND SUB PUSH2 0x222C JUMPI PUSH1 0x0 PUSH1 0x40 MLOAD PUSH32 0xEC442F0500000000000000000000000000000000000000000000000000000000 DUP2 MSTORE PUSH1 0x4 ADD PUSH2 0x2223 SWAP2 SWAP1 PUSH2 0x288A JUMP JUMPDEST PUSH1 0x40 MLOAD DUP1 SWAP2 SUB SWAP1 REVERT JUMPDEST PUSH2 0x2238 PUSH1 0x0 DUP4 DUP4 PUSH2 0x2413 JUMP JUMPDEST POP POP JUMP JUMPDEST PUSH1 0x0 PUSH20 0xFFFFFFFFFFFFFFFFFFFFFFFFFFFFFFFFFFFFFFFF AND DUP5 PUSH20 0xFFFFFFFFFFFFFFFFFFFFFFFFFFFFFFFFFFFFFFFF AND SUB PUSH2 0x22AE JUMPI PUSH1 0x0 PUSH1 0x40 MLOAD PUSH32 0xE602DF0500000000000000000000000000000000000000000000000000000000 DUP2 MSTORE PUSH1 0x4 ADD PUSH2 0x22A5 SWAP2 SWAP1 PUSH2 0x288A JUMP JUMPDEST PUSH1 0x40 MLOAD DUP1 SWAP2 SUB SWAP1 REVERT JUMPDEST PUSH1 0x0 PUSH20 0xFFFFFFFFFFFFFFFFFFFFFFFFFFFFFFFFFFFFFFFF AND DUP4 PUSH20 0xFFFFFFFFFFFFFFFFFFFFFFFFFFFFFFFFFFFFFFFF AND SUB PUSH2 0x2320 JUMPI PUSH1 0x0 PUSH1 0x40 MLOAD PUSH32 0x94280D6200000000000000000000000000000000000000000000000000000000 DUP2 MSTORE PUSH1 0x4 ADD PUSH2 0x2317 SWAP2 SWAP1 PUSH2 0x288A JUMP JUMPDEST PUSH1 0x40 MLOAD DUP1 SWAP2 SUB SWAP1 REVERT JUMPDEST DUP2 PUSH1 0x1 PUSH1 0x0 DUP7 PUSH20 0xFFFFFFFFFFFFFFFFFFFFFFFFFFFFFFFFFFFFFFFF AND PUSH20 0xFFFFFFFFFFFFFFFFFFFFFFFFFFFFFFFFFFFFFFFF AND DUP2 MSTORE PUSH1 0x20 ADD SWAP1 DUP2 MSTORE PUSH1 0x20 ADD PUSH1 0x0 KECCAK256 PUSH1 0x0 DUP6 PUSH20 0xFFFFFFFFFFFFFFFFFFFFFFFFFFFFFFFFFFFFFFFF AND PUSH20 0xFFFFFFFFFFFFFFFFFFFFFFFFFFFFFFFFFFFFFFFF AND DUP2 MSTORE PUSH1 0x20 ADD SWAP1 DUP2 MSTORE PUSH1 0x20 ADD PUSH1 0x0 KECCAK256 DUP2 SWAP1 SSTORE POP DUP1 ISZERO PUSH2 0x240D JUMPI DUP3 PUSH20 0xFFFFFFFFFFFFFFFFFFFFFFFFFFFFFFFFFFFFFFFF AND DUP5 PUSH20 0xFFFFFFFFFFFFFFFFFFFFFFFFFFFFFFFFFFFFFFFF AND PUSH32 0x8C5BE1E5EBEC7D5BD14F71427D1E84F3DD0314C0F7B2291E5B200AC8C7C3B925 DUP5 PUSH1 0x40 MLOAD PUSH2 0x2404 SWAP2 SWAP1 PUSH2 0x26DA JUMP JUMPDEST PUSH1 0x40 MLOAD DUP1 SWAP2 SUB SWAP1 LOG3 JUMPDEST POP POP POP POP JUMP JUMPDEST PUSH1 0x0 PUSH20 0xFFFFFFFFFFFFFFFFFFFFFFFFFFFFFFFFFFFFFFFF AND DUP4 PUSH20 0xFFFFFFFFFFFFFFFFFFFFFFFFFFFFFFFFFFFFFFFF AND SUB PUSH2 0x2465 JUMPI DUP1 PUSH1 0x2 PUSH1 0x0 DUP3 DUP3 SLOAD PUSH2 0x2459 SWAP2 SWAP1 PUSH2 0x2E7C JUMP JUMPDEST SWAP3 POP POP DUP2 SWAP1 SSTORE POP PUSH2 0x2538 JUMP JUMPDEST PUSH1 0x0 DUP1 PUSH1 0x0 DUP6 PUSH20 0xFFFFFFFFFFFFFFFFFFFFFFFFFFFFFFFFFFFFFFFF AND PUSH20 0xFFFFFFFFFFFFFFFFFFFFFFFFFFFFFFFFFFFFFFFF AND DUP2 MSTORE PUSH1 0x20 ADD SWAP1 DUP2 MSTORE PUSH1 0x20 ADD PUSH1 0x0 KECCAK256 SLOAD SWAP1 POP DUP2 DUP2 LT ISZERO PUSH2 0x24F1 JUMPI DUP4 DUP2 DUP4 PUSH1 0x40 MLOAD PUSH32 0xE450D38C00000000000000000000000000000000000000000000000000000000 DUP2 MSTORE PUSH1 0x4 ADD PUSH2 0x24E8 SWAP4 SWAP3 SWAP2 SWAP1 PUSH2 0x341B JUMP JUMPDEST PUSH1 0x40 MLOAD DUP1 SWAP2 SUB SWAP1 REVERT JUMPDEST DUP2 DUP2 SUB PUSH1 0x0 DUP1 DUP7 PUSH20 0xFFFFFFFFFFFFFFFFFFFFFFFFFFFFFFFFFFFFFFFF AND PUSH20 0xFFFFFFFFFFFFFFFFFFFFFFFFFFFFFFFFFFFFFFFF AND DUP2 MSTORE PUSH1 0x20 ADD SWAP1 DUP2 MSTORE PUSH1 0x20 ADD PUSH1 0x0 KECCAK256 DUP2 SWAP1 SSTORE POP POP JUMPDEST PUSH1 0x0 PUSH20 0xFFFFFFFFFFFFFFFFFFFFFFFFFFFFFFFFFFFFFFFF AND DUP3 PUSH20 0xFFFFFFFFFFFFFFFFFFFFFFFFFFFFFFFFFFFFFFFF AND SUB PUSH2 0x2581 JUMPI DUP1 PUSH1 0x2 PUSH1 0x0 DUP3 DUP3 SLOAD SUB SWAP3 POP POP DUP2 SWAP1 SSTORE POP PUSH2 0x25CE JUMP JUMPDEST DUP1 PUSH1 0x0 DUP1 DUP5 PUSH20 0xFFFFFFFFFFFFFFFFFFFFFFFFFFFFFFFFFFFFFFFF AND PUSH20 0xFFFFFFFFFFFFFFFFFFFFFFFFFFFFFFFFFFFFFFFF AND DUP2 MSTORE PUSH1 0x20 ADD SWAP1 DUP2 MSTORE PUSH1 0x20 ADD PUSH1 0x0 KECCAK256 PUSH1 0x0 DUP3 DUP3 SLOAD ADD SWAP3 POP POP DUP2 SWAP1 SSTORE POP JUMPDEST DUP2 PUSH20 0xFFFFFFFFFFFFFFFFFFFFFFFFFFFFFFFFFFFFFFFF AND DUP4 PUSH20 0xFFFFFFFFFFFFFFFFFFFFFFFFFFFFFFFFFFFFFFFF AND PUSH32 0xDDF252AD1BE2C89B69C2B068FC378DAA952BA7F163C4A11628F55A4DF523B3EF DUP4 PUSH1 0x40 MLOAD PUSH2 0x262B SWAP2 SWAP1 PUSH2 0x26DA JUMP JUMPDEST PUSH1 0x40 MLOAD DUP1 SWAP2 SUB SWAP1 LOG3 POP POP POP JUMP JUMPDEST PUSH1 0x0 DUP1 REVERT JUMPDEST PUSH1 0x0 DUP1 REVERT JUMPDEST PUSH1 0x0 DUP2 SWAP1 POP SWAP2 SWAP1 POP JUMP JUMPDEST PUSH2 0x2655 DUP2 PUSH2 0x2642 JUMP JUMPDEST DUP2 EQ PUSH2 0x2660 JUMPI PUSH1 0x0 DUP1 REVERT JUMPDEST POP JUMP JUMPDEST PUSH1 0x0 DUP2 CALLDATALOAD SWAP1 POP PUSH2 0x2672 DUP2 PUSH2 0x264C JUMP JUMPDEST SWAP3 SWAP2 POP POP JUMP JUMPDEST PUSH1 0x0 DUP1 PUSH1 0x0 PUSH1 0x60 DUP5 DUP7 SUB SLT ISZERO PUSH2 0x2691 JUMPI PUSH2 0x2690 PUSH2 0x2638 JUMP JUMPDEST JUMPDEST PUSH1 0x0 PUSH2 0x269F DUP7 DUP3 DUP8 ADD PUSH2 0x2663 JUMP JUMPDEST SWAP4 POP POP PUSH1 0x20 PUSH2 0x26B0 DUP7 DUP3 DUP8 ADD PUSH2 0x2663 JUMP JUMPDEST SWAP3 POP POP PUSH1 0x40 PUSH2 0x26C1 DUP7 DUP3 DUP8 ADD PUSH2 0x2663 JUMP JUMPDEST SWAP2 POP POP SWAP3 POP SWAP3 POP SWAP3 JUMP JUMPDEST PUSH2 0x26D4 DUP2 PUSH2 0x2642 JUMP JUMPDEST DUP3 MSTORE POP POP JUMP JUMPDEST PUSH1 0x0 PUSH1 0x20 DUP3 ADD SWAP1 POP PUSH2 0x26EF PUSH1 0x0 DUP4 ADD DUP5 PUSH2 0x26CB JUMP JUMPDEST SWAP3 SWAP2 POP POP JUMP JUMPDEST PUSH1 0x0 DUP2 MLOAD SWAP1 POP SWAP2 SWAP1 POP JUMP JUMPDEST PUSH1 0x0 DUP3 DUP3 MSTORE PUSH1 0x20 DUP3 ADD SWAP1 POP SWAP3 SWAP2 POP POP JUMP JUMPDEST PUSH1 0x0 JUMPDEST DUP4 DUP2 LT ISZERO PUSH2 0x272F JUMPI DUP1 DUP3 ADD MLOAD DUP2 DUP5 ADD MSTORE PUSH1 0x20 DUP2 ADD SWAP1 POP PUSH2 0x2714 JUMP JUMPDEST PUSH1 0x0 DUP5 DUP5 ADD MSTORE POP POP POP POP JUMP JUMPDEST PUSH1 0x0 PUSH1 0x1F NOT PUSH1 0x1F DUP4 ADD AND SWAP1 POP SWAP2 SWAP1 POP JUMP JUMPDEST PUSH1 0x0 PUSH2 0x2757 DUP3 PUSH2 0x26F5 JUMP JUMPDEST PUSH2 0x2761 DUP2 DUP6 PUSH2 0x2700 JUMP JUMPDEST SWAP4 POP PUSH2 0x2771 DUP2 DUP6 PUSH1 0x20 DUP7 ADD PUSH2 0x2711 JUMP JUMPDEST PUSH2 0x277A DUP2 PUSH2 0x273B JUMP JUMPDEST DUP5 ADD SWAP2 POP POP SWAP3 SWAP2 POP POP JUMP JUMPDEST PUSH1 0x0 PUSH1 0x20 DUP3 ADD SWAP1 POP DUP2 DUP2 SUB PUSH1 0x0 DUP4 ADD MSTORE PUSH2 0x279F DUP2 DUP5 PUSH2 0x274C JUMP JUMPDEST SWAP1 POP SWAP3 SWAP2 POP POP JUMP JUMPDEST PUSH1 0x0 PUSH20 0xFFFFFFFFFFFFFFFFFFFFFFFFFFFFFFFFFFFFFFFF DUP3 AND SWAP1 POP SWAP2 SWAP1 POP JUMP JUMPDEST PUSH1 0x0 PUSH2 0x27D2 DUP3 PUSH2 0x27A7 JUMP JUMPDEST SWAP1 POP SWAP2 SWAP1 POP JUMP JUMPDEST PUSH2 0x27E2 DUP2 PUSH2 0x27C7 JUMP JUMPDEST DUP2 EQ PUSH2 0x27ED JUMPI PUSH1 0x0 DUP1 REVERT JUMPDEST POP JUMP JUMPDEST PUSH1 0x0 DUP2 CALLDATALOAD SWAP1 POP PUSH2 0x27FF DUP2 PUSH2 0x27D9 JUMP JUMPDEST SWAP3 SWAP2 POP POP JUMP JUMPDEST PUSH1 0x0 DUP1 PUSH1 0x40 DUP4 DUP6 SUB SLT ISZERO PUSH2 0x281C JUMPI PUSH2 0x281B PUSH2 0x2638 JUMP JUMPDEST JUMPDEST PUSH1 0x0 PUSH2 0x282A DUP6 DUP3 DUP7 ADD PUSH2 0x27F0 JUMP JUMPDEST SWAP3 POP POP PUSH1 0x20 PUSH2 0x283B DUP6 DUP3 DUP7 ADD PUSH2 0x2663 JUMP JUMPDEST SWAP2 POP POP SWAP3 POP SWAP3 SWAP1 POP JUMP JUMPDEST PUSH1 0x0 DUP2 ISZERO ISZERO SWAP1 POP SWAP2 SWAP1 POP JUMP JUMPDEST PUSH2 0x285A DUP2 PUSH2 0x2845 JUMP JUMPDEST DUP3 MSTORE POP POP JUMP JUMPDEST PUSH1 0x0 PUSH1 0x20 DUP3 ADD SWAP1 POP PUSH2 0x2875 PUSH1 0x0 DUP4 ADD DUP5 PUSH2 0x2851 JUMP JUMPDEST SWAP3 SWAP2 POP POP JUMP JUMPDEST PUSH2 0x2884 DUP2 PUSH2 0x27C7 JUMP JUMPDEST DUP3 MSTORE POP POP JUMP JUMPDEST PUSH1 0x0 PUSH1 0x20 DUP3 ADD SWAP1 POP PUSH2 0x289F PUSH1 0x0 DUP4 ADD DUP5 PUSH2 0x287B JUMP JUMPDEST SWAP3 SWAP2 POP POP JUMP JUMPDEST PUSH1 0x0 DUP1 PUSH1 0x0 PUSH1 0x60 DUP5 DUP7 SUB SLT ISZERO PUSH2 0x28BE JUMPI PUSH2 0x28BD PUSH2 0x2638 JUMP JUMPDEST JUMPDEST PUSH1 0x0 PUSH2 0x28CC DUP7 DUP3 DUP8 ADD PUSH2 0x27F0 JUMP JUMPDEST SWAP4 POP POP PUSH1 0x20 PUSH2 0x28DD DUP7 DUP3 DUP8 ADD PUSH2 0x27F0 JUMP JUMPDEST SWAP3 POP POP PUSH1 0x40 PUSH2 0x28EE DUP7 DUP3 DUP8 ADD PUSH2 0x2663 JUMP JUMPDEST SWAP2 POP POP SWAP3 POP SWAP3 POP SWAP3 JUMP JUMPDEST PUSH1 0x0 PUSH1 0xFF DUP3 AND SWAP1 POP SWAP2 SWAP1 POP JUMP JUMPDEST PUSH2 0x290E DUP2 PUSH2 0x28F8 JUMP JUMPDEST DUP3 MSTORE POP POP JUMP JUMPDEST PUSH1 0x0 PUSH1 0x20 DUP3 ADD SWAP1 POP PUSH2 0x2929 PUSH1 0x0 DUP4 ADD DUP5 PUSH2 0x2905 JUMP JUMPDEST SWAP3 SWAP2 POP POP JUMP JUMPDEST PUSH1 0x0 DUP1 REVERT JUMPDEST PUSH1 0x0 DUP1 REVERT JUMPDEST PUSH1 0x0 DUP1 REVERT JUMPDEST PUSH1 0x0 DUP1 DUP4 PUSH1 0x1F DUP5 ADD SLT PUSH2 0x2954 JUMPI PUSH2 0x2953 PUSH2 0x292F JUMP JUMPDEST JUMPDEST DUP3 CALLDATALOAD SWAP1 POP PUSH8 0xFFFFFFFFFFFFFFFF DUP2 GT ISZERO PUSH2 0x2971 JUMPI PUSH2 0x2970 PUSH2 0x2934 JUMP JUMPDEST JUMPDEST PUSH1 0x20 DUP4 ADD SWAP2 POP DUP4 PUSH1 0x20 DUP3 MUL DUP4 ADD GT ISZERO PUSH2 0x298D JUMPI PUSH2 0x298C PUSH2 0x2939 JUMP JUMPDEST JUMPDEST SWAP3 POP SWAP3 SWAP1 POP JUMP JUMPDEST PUSH1 0x0 DUP1 PUSH1 0x0 DUP1 PUSH1 0x0 DUP1 PUSH1 0xA0 DUP8 DUP10 SUB SLT ISZERO PUSH2 0x29B1 JUMPI PUSH2 0x29B0 PUSH2 0x2638 JUMP JUMPDEST JUMPDEST PUSH1 0x0 PUSH2 0x29BF DUP10 DUP3 DUP11 ADD PUSH2 0x2663 JUMP JUMPDEST SWAP7 POP POP PUSH1 0x20 PUSH2 0x29D0 DUP10 DUP3 DUP11 ADD PUSH2 0x2663 JUMP JUMPDEST SWAP6 POP POP PUSH1 0x40 DUP8 ADD CALLDATALOAD PUSH8 0xFFFFFFFFFFFFFFFF DUP2 GT ISZERO PUSH2 0x29F1 JUMPI PUSH2 0x29F0 PUSH2 0x263D JUMP JUMPDEST JUMPDEST PUSH2 0x29FD DUP10 DUP3 DUP11 ADD PUSH2 0x293E JUMP JUMPDEST SWAP5 POP SWAP5 POP POP PUSH1 0x60 PUSH2 0x2A10 DUP10 DUP3 DUP11 ADD PUSH2 0x27F0 JUMP JUMPDEST SWAP3 POP POP PUSH1 0x80 PUSH2 0x2A21 DUP10 DUP3 DUP11 ADD PUSH2 0x2663 JUMP JUMPDEST SWAP2 POP POP SWAP3 SWAP6 POP SWAP3 SWAP6 POP SWAP3 SWAP6 JUMP JUMPDEST PUSH1 0x0 DUP2 MLOAD SWAP1 POP SWAP2 SWAP1 POP JUMP JUMPDEST PUSH1 0x0 DUP3 DUP3 MSTORE PUSH1 0x20 DUP3 ADD SWAP1 POP SWAP3 SWAP2 POP POP JUMP JUMPDEST PUSH1 0x0 DUP2 SWAP1 POP PUSH1 0x20 DUP3 ADD SWAP1 POP SWAP2 SWAP1 POP JUMP JUMPDEST PUSH2 0x2A63 DUP2 PUSH2 0x2642 JUMP JUMPDEST DUP3 MSTORE POP POP JUMP JUMPDEST PUSH1 0x0 PUSH2 0x2A75 DUP4 DUP4 PUSH2 0x2A5A JUMP JUMPDEST PUSH1 0x20 DUP4 ADD SWAP1 POP SWAP3 SWAP2 POP POP JUMP JUMPDEST PUSH1 0x0 PUSH1 0x20 DUP3 ADD SWAP1 POP SWAP2 SWAP1 POP JUMP JUMPDEST PUSH1 0x0 PUSH2 0x2A99 DUP3 PUSH2 0x2A2E JUMP JUMPDEST PUSH2 0x2AA3 DUP2 DUP6 PUSH2 0x2A39 JUMP JUMPDEST SWAP4 POP PUSH2 0x2AAE DUP4 PUSH2 0x2A4A JUMP JUMPDEST DUP1 PUSH1 0x0 JUMPDEST DUP4 DUP2 LT ISZERO PUSH2 0x2ADF JUMPI DUP2 MLOAD PUSH2 0x2AC6 DUP9 DUP3 PUSH2 0x2A69 JUMP JUMPDEST SWAP8 POP PUSH2 0x2AD1 DUP4 PUSH2 0x2A81 JUMP JUMPDEST SWAP3 POP POP PUSH1 0x1 DUP2 ADD SWAP1 POP PUSH2 0x2AB2 JUMP JUMPDEST POP DUP6 SWAP4 POP POP POP POP SWAP3 SWAP2 POP POP JUMP JUMPDEST PUSH1 0x0 PUSH1 0x20 DUP3 ADD SWAP1 POP DUP2 DUP2 SUB PUSH1 0x0 DUP4 ADD MSTORE PUSH2 0x2B06 DUP2 DUP5 PUSH2 0x2A8E JUMP JUMPDEST SWAP1 POP SWAP3 SWAP2 POP POP JUMP JUMPDEST PUSH1 0x0 PUSH1 0x20 DUP3 DUP5 SUB SLT ISZERO PUSH2 0x2B24 JUMPI PUSH2 0x2B23 PUSH2 0x2638 JUMP JUMPDEST JUMPDEST PUSH1 0x0 PUSH2 0x2B32 DUP5 DUP3 DUP6 ADD PUSH2 0x27F0 JUMP JUMPDEST SWAP2 POP POP SWAP3 SWAP2 POP POP JUMP JUMPDEST PUSH1 0x0 DUP1 PUSH1 0x40 DUP4 DUP6 SUB SLT ISZERO PUSH2 0x2B52 JUMPI PUSH2 0x2B51 PUSH2 0x2638 JUMP JUMPDEST JUMPDEST PUSH1 0x0 PUSH2 0x2B60 DUP6 DUP3 DUP7 ADD PUSH2 0x27F0 JUMP JUMPDEST SWAP3 POP POP PUSH1 0x20 PUSH2 0x2B71 DUP6 DUP3 DUP7 ADD PUSH2 0x27F0 JUMP JUMPDEST SWAP2 POP POP SWAP3 POP SWAP3 SWAP1 POP JUMP JUMPDEST PUSH1 0x0 DUP1 PUSH1 0x0 DUP1 PUSH1 0x0 DUP1 PUSH1 0x0 PUSH1 0xE0 DUP9 DUP11 SUB SLT ISZERO PUSH2 0x2B9A JUMPI PUSH2 0x2B99 PUSH2 0x2638 JUMP JUMPDEST JUMPDEST PUSH1 0x0 PUSH2 0x2BA8 DUP11 DUP3 DUP12 ADD PUSH2 0x27F0 JUMP JUMPDEST SWAP8 POP POP PUSH1 0x20 PUSH2 0x2BB9 DUP11 DUP3 DUP12 ADD PUSH2 0x27F0 JUMP JUMPDEST SWAP7 POP POP PUSH1 0x40 PUSH2 0x2BCA DUP11 DUP3 DUP12 ADD PUSH2 0x2663 JUMP JUMPDEST SWAP6 POP POP PUSH1 0x60 PUSH2 0x2BDB DUP11 DUP3 DUP12 ADD PUSH2 0x2663 JUMP JUMPDEST SWAP5 POP POP PUSH1 0x80 PUSH2 0x2BEC DUP11 DUP3 DUP12 ADD PUSH2 0x2663 JUMP JUMPDEST SWAP4 POP POP PUSH1 0xA0 PUSH2 0x2BFD DUP11 DUP3 DUP12 ADD PUSH2 0x27F0 JUMP JUMPDEST SWAP3 POP POP PUSH1 0xC0 PUSH2 0x2C0E DUP11 DUP3 DUP12 ADD PUSH2 0x2663 JUMP JUMPDEST SWAP2 POP POP SWAP3 SWAP6 SWAP9 SWAP2 SWAP5 SWAP8 POP SWAP3 SWAP6 POP JUMP JUMPDEST PUSH1 0x0 PUSH1 0x40 DUP3 ADD SWAP1 POP PUSH2 0x2C32 PUSH1 0x0 DUP4 ADD DUP6 PUSH2 0x26CB JUMP JUMPDEST PUSH2 0x2C3F PUSH1 0x20 DUP4 ADD DUP5 PUSH2 0x26CB JUMP JUMPDEST SWAP4 SWAP3 POP POP POP JUMP JUMPDEST PUSH1 0x0 DUP1 PUSH1 0x0 DUP1 PUSH1 0x0 DUP1 PUSH1 0x0 DUP1 PUSH2 0x100 DUP10 DUP12 SUB SLT ISZERO PUSH2 0x2C67 JUMPI PUSH2 0x2C66 PUSH2 0x2638 JUMP JUMPDEST JUMPDEST PUSH1 0x0 PUSH2 0x2C75 DUP12 DUP3 DUP13 ADD PUSH2 0x27F0 JUMP JUMPDEST SWAP9 POP POP PUSH1 0x20 PUSH2 0x2C86 DUP12 DUP3 DUP13 ADD PUSH2 0x27F0 JUMP JUMPDEST SWAP8 POP POP PUSH1 0x40 PUSH2 0x2C97 DUP12 DUP3 DUP13 ADD PUSH2 0x2663 JUMP JUMPDEST SWAP7 POP POP PUSH1 0x60 PUSH2 0x2CA8 DUP12 DUP3 DUP13 ADD PUSH2 0x2663 JUMP JUMPDEST SWAP6 POP POP PUSH1 0x80 PUSH2 0x2CB9 DUP12 DUP3 DUP13 ADD PUSH2 0x2663 JUMP JUMPDEST SWAP5 POP POP PUSH1 0xA0 PUSH2 0x2CCA DUP12 DUP3 DUP13 ADD PUSH2 0x2663 JUMP JUMPDEST SWAP4 POP POP PUSH1 0xC0 PUSH2 0x2CDB DUP12 DUP3 DUP13 ADD PUSH2 0x27F0 JUMP JUMPDEST SWAP3 POP POP PUSH1 0xE0 PUSH2 0x2CEC DUP12 DUP3 DUP13 ADD PUSH2 0x2663 JUMP JUMPDEST SWAP2 POP POP SWAP3 SWAP6 SWAP9 POP SWAP3 SWAP6 SWAP9 SWAP1 SWAP4 SWAP7 POP JUMP JUMPDEST PUSH1 0x0 PUSH1 0x60 DUP3 ADD SWAP1 POP PUSH2 0x2D11 PUSH1 0x0 DUP4 ADD DUP7 PUSH2 0x26CB JUMP JUMPDEST PUSH2 0x2D1E PUSH1 0x20 DUP4 ADD DUP6 PUSH2 0x26CB JUMP JUMPDEST PUSH2 0x2D2B PUSH1 0x40 DUP4 ADD DUP5 PUSH2 0x26CB JUMP JUMPDEST SWAP5 SWAP4 POP POP POP POP JUMP JUMPDEST PUSH32 0x494E53554646494349454E545F494E0000000000000000000000000000000000 PUSH1 0x0 DUP3 ADD MSTORE POP JUMP JUMPDEST PUSH1 0x0 PUSH2 0x2D69 PUSH1 0xF DUP4 PUSH2 0x2700 JUMP JUMPDEST SWAP2 POP PUSH2 0x2D74 DUP3 PUSH2 0x2D33 JUMP JUMPDEST PUSH1 0x20 DUP3 ADD SWAP1 POP SWAP2 SWAP1 POP JUMP JUMPDEST PUSH1 0x0 PUSH1 0x20 DUP3 ADD SWAP1 POP DUP2 DUP2 SUB PUSH1 0x0 DUP4 ADD MSTORE PUSH2 0x2D98 DUP2 PUSH2 0x2D5C JUMP JUMPDEST SWAP1 POP SWAP2 SWAP1 POP JUMP JUMPDEST PUSH32 0x4E4F5F4C49515549444954590000000000000000000000000000000000000000 PUSH1 0x0 DUP3 ADD MSTORE POP JUMP JUMPDEST PUSH1 0x0 PUSH2 0x2DD5 PUSH1 0xC DUP4 PUSH2 0x2700 JUMP JUMPDEST SWAP2 POP PUSH2 0x2DE0 DUP3 PUSH2 0x2D9F JUMP JUMPDEST PUSH1 0x20 DUP3 ADD SWAP1 POP SWAP2 SWAP1 POP JUMP JUMPDEST PUSH1 0x0 PUSH1 0x20 DUP3 ADD SWAP1 POP DUP2 DUP2 SUB PUSH1 0x0 DUP4 ADD MSTORE PUSH2 0x2E04 DUP2 PUSH2 0x2DC8 JUMP JUMPDEST SWAP1 POP SWAP2 SWAP1 POP JUMP JUMPDEST PUSH32 0x4E487B7100000000000000000000000000000000000000000000000000000000 PUSH1 0x0 MSTORE PUSH1 0x11 PUSH1 0x4 MSTORE PUSH1 0x24 PUSH1 0x0 REVERT JUMPDEST PUSH1 0x0 PUSH2 0x2E45 DUP3 PUSH2 0x2642 JUMP JUMPDEST SWAP2 POP PUSH2 0x2E50 DUP4 PUSH2 0x2642 JUMP JUMPDEST SWAP3 POP DUP3 DUP3 MUL PUSH2 0x2E5E DUP2 PUSH2 0x2642 JUMP JUMPDEST SWAP2 POP DUP3 DUP3 DIV DUP5 EQ DUP4 ISZERO OR PUSH2 0x2E75 JUMPI PUSH2 0x2E74 PUSH2 0x2E0B JUMP JUMPDEST JUMPDEST POP SWAP3 SWAP2 POP POP JUMP JUMPDEST PUSH1 0x0 PUSH2 0x2E87 DUP3 PUSH2 0x2642 JUMP JUMPDEST SWAP2 POP PUSH2 0x2E92 DUP4 PUSH2 0x2642 JUMP JUMPDEST SWAP3 POP DUP3 DUP3 ADD SWAP1 POP DUP1 DUP3 GT ISZERO PUSH2 0x2EAA JUMPI PUSH2 0x2EA9 PUSH2 0x2E0B JUMP JUMPDEST JUMPDEST SWAP3 SWAP2 POP POP JUMP JUMPDEST PUSH32 0x4E487B7100000000000000000000000000000000000000000000000000000000 PUSH1 0x0 MSTORE PUSH1 0x12 PUSH1 0x4 MSTORE PUSH1 0x24 PUSH1 0x0 REVERT JUMPDEST PUSH1 0x0 PUSH2 0x2EEA DUP3 PUSH2 0x2642 JUMP JUMPDEST SWAP2 POP PUSH2 0x2EF5 DUP4 PUSH2 0x2642 JUMP JUMPDEST SWAP3 POP DUP3 PUSH2 0x2F05 JUMPI PUSH2 0x2F04 PUSH2 0x2EB0 JUMP JUMPDEST JUMPDEST DUP3 DUP3 DIV SWAP1 POP SWAP3 SWAP2 POP POP JUMP JUMPDEST PUSH32 0x4E487B7100000000000000000000000000000000000000000000000000000000 PUSH1 0x0 MSTORE PUSH1 0x22 PUSH1 0x4 MSTORE PUSH1 0x24 PUSH1 0x0 REVERT JUMPDEST PUSH1 0x0 PUSH1 0x2 DUP3 DIV SWAP1 POP PUSH1 0x1 DUP3 AND DUP1 PUSH2 0x2F57 JUMPI PUSH1 0x7F DUP3 AND SWAP2 POP JUMPDEST PUSH1 0x20 DUP3 LT DUP2 SUB PUSH2 0x2F6A JUMPI PUSH2 0x2F69 PUSH2 0x2F10 JUMP JUMPDEST JUMPDEST POP SWAP2 SWAP1 POP JUMP JUMPDEST PUSH32 0x4558504952454400000000000000000000000000000000000000000000000000 PUSH1 0x0 DUP3 ADD MSTORE POP JUMP JUMPDEST PUSH1 0x0 PUSH2 0x2FA6 PUSH1 0x7 DUP4 PUSH2 0x2700 JUMP JUMPDEST SWAP2 POP PUSH2 0x2FB1 DUP3 PUSH2 0x2F70 JUMP JUMPDEST PUSH1 0x20 DUP3 ADD SWAP1 POP SWAP2 SWAP1 POP JUMP JUMPDEST PUSH1 0x0 PUSH1 0x20 DUP3 ADD SWAP1 POP DUP2 DUP2 SUB PUSH1 0x0 DUP4 ADD MSTORE PUSH2 0x2FD5 DUP2 PUSH2 0x2F99 JUMP JUMPDEST SWAP1 POP SWAP2 SWAP1 POP JUMP JUMPDEST PUSH32 0x494E56414C49445F504154485F4C454E47544800000000000000000000000000 PUSH1 0x0 DUP3 ADD MSTORE POP JUMP JUMPDEST PUSH1 0x0 PUSH2 0x3012 PUSH1 0x13 DUP4 PUSH2 0x2700 JUMP JUMPDEST SWAP2 POP PUSH2 0x301D DUP3 PUSH2 0x2FDC JUMP JUMPDEST PUSH1 0x20 DUP3 ADD SWAP1 POP SWAP2 SWAP1 POP JUMP JUMPDEST PUSH1 0x0 PUSH1 0x20 DUP3 ADD SWAP1 POP DUP2 DUP2 SUB PUSH1 0x0 DUP4 ADD MSTORE PUSH2 0x3041 DUP2 PUSH2 0x3005 JUMP JUMPDEST SWAP1 POP SWAP2 SWAP1 POP JUMP JUMPDEST PUSH32 0x4E487B7100000000000000000000000000000000000000000000000000000000 PUSH1 0x0 MSTORE PUSH1 0x32 PUSH1 0x4 MSTORE PUSH1 0x24 PUSH1 0x0 REVERT JUMPDEST PUSH32 0x494E56414C49445F504154480000000000000000000000000000000000000000 PUSH1 0x0 DUP3 ADD MSTORE POP JUMP JUMPDEST PUSH1 0x0 PUSH2 0x30AD PUSH1 0xC DUP4 PUSH2 0x2700 JUMP JUMPDEST SWAP2 POP PUSH2 0x30B8 DUP3 PUSH2 0x3077 JUMP JUMPDEST PUSH1 0x20 DUP3 ADD SWAP1 POP SWAP2 SWAP1 POP JUMP JUMPDEST PUSH1 0x0 PUSH1 0x20 DUP3 ADD SWAP1 POP DUP2 DUP2 SUB PUSH1 0x0 DUP4 ADD MSTORE PUSH2 0x30DC DUP2 PUSH2 0x30A0 JUMP JUMPDEST SWAP1 POP SWAP2 SWAP1 POP JUMP JUMPDEST PUSH32 0x4E487B7100000000000000000000000000000000000000000000000000000000 PUSH1 0x0 MSTORE PUSH1 0x41 PUSH1 0x4 MSTORE PUSH1 0x24 PUSH1 0x0 REVERT JUMPDEST PUSH32 0x494E53554646494349454E545F4F555400000000000000000000000000000000 PUSH1 0x0 DUP3 ADD MSTORE POP JUMP JUMPDEST PUSH1 0x0 PUSH2 0x3148 PUSH1 0x10 DUP4 PUSH2 0x2700 JUMP JUMPDEST SWAP2 POP PUSH2 0x3153 DUP3 PUSH2 0x3112 JUMP JUMPDEST PUSH1 0x20 DUP3 ADD SWAP1 POP SWAP2 SWAP1 POP JUMP JUMPDEST PUSH1 0x0 PUSH1 0x20 DUP3 ADD SWAP1 POP DUP2 DUP2 SUB PUSH1 0x0 DUP4 ADD MSTORE PUSH2 0x3177 DUP2 PUSH2 0x313B JUMP JUMPDEST SWAP1 POP SWAP2 SWAP1 POP JUMP JUMPDEST PUSH1 0x0 PUSH1 0x60 DUP3 ADD SWAP1 POP PUSH2 0x3193 PUSH1 0x0 DUP4 ADD DUP7 PUSH2 0x287B JUMP JUMPDEST PUSH2 0x31A0 PUSH1 0x20 DUP4 ADD DUP6 PUSH2 0x287B JUMP JUMPDEST PUSH2 0x31AD PUSH1 0x40 DUP4 ADD DUP5 PUSH2 0x26CB JUMP JUMPDEST SWAP5 SWAP4 POP POP POP POP JUMP JUMPDEST PUSH2 0x31BE DUP2 PUSH2 0x2845 JUMP JUMPDEST DUP2 EQ PUSH2 0x31C9 JUMPI PUSH1 0x0 DUP1 REVERT JUMPDEST POP JUMP JUMPDEST PUSH1 0x0 DUP2 MLOAD SWAP1 POP PUSH2 0x31DB DUP2 PUSH2 0x31B5 JUMP JUMPDEST SWAP3 SWAP2 POP POP JUMP JUMPDEST PUSH1 0x0 PUSH1 0x20 DUP3 DUP5 SUB SLT ISZERO PUSH2 0x31F7 JUMPI PUSH2 0x31F6 PUSH2 0x2638 JUMP JUMPDEST JUMPDEST PUSH1 0x0 PUSH2 0x3205 DUP5 DUP3 DUP6 ADD PUSH2 0x31CC JUMP JUMPDEST SWAP2 POP POP SWAP3 SWAP2 POP POP JUMP JUMPDEST PUSH1 0x0 PUSH2 0x3219 DUP3 PUSH2 0x2642 JUMP JUMPDEST SWAP2 POP PUSH2 0x3224 DUP4 PUSH2 0x2642 JUMP JUMPDEST SWAP3 POP DUP3 DUP3 SUB SWAP1 POP DUP2 DUP2 GT ISZERO PUSH2 0x323C JUMPI PUSH2 0x323B PUSH2 0x2E0B JUMP JUMPDEST JUMPDEST SWAP3 SWAP2 POP POP JUMP JUMPDEST PUSH1 0x0 PUSH1 0x40 DUP3 ADD SWAP1 POP PUSH2 0x3257 PUSH1 0x0 DUP4 ADD DUP6 PUSH2 0x287B JUMP JUMPDEST PUSH2 0x3264 PUSH1 0x20 DUP4 ADD DUP5 PUSH2 0x26CB JUMP JUMPDEST SWAP4 SWAP3 POP POP POP JUMP JUMPDEST PUSH32 0x494E56414C49445F504149520000000000000000000000000000000000000000 PUSH1 0x0 DUP3 ADD MSTORE POP JUMP JUMPDEST PUSH1 0x0 PUSH2 0x32A1 PUSH1 0xC DUP4 PUSH2 0x2700 JUMP JUMPDEST SWAP2 POP PUSH2 0x32AC DUP3 PUSH2 0x326B JUMP JUMPDEST PUSH1 0x20 DUP3 ADD SWAP1 POP SWAP2 SWAP1 POP JUMP JUMPDEST PUSH1 0x0 PUSH1 0x20 DUP3 ADD SWAP1 POP DUP2 DUP2 SUB PUSH1 0x0 DUP4 ADD MSTORE PUSH2 0x32D0 DUP2 PUSH2 0x3294 JUMP JUMPDEST SWAP1 POP SWAP2 SWAP1 POP JUMP JUMPDEST PUSH32 0x494E53554646494349454E545F41000000000000000000000000000000000000 PUSH1 0x0 DUP3 ADD MSTORE POP JUMP JUMPDEST PUSH1 0x0 PUSH2 0x330D PUSH1 0xE DUP4 PUSH2 0x2700 JUMP JUMPDEST SWAP2 POP PUSH2 0x3318 DUP3 PUSH2 0x32D7 JUMP JUMPDEST PUSH1 0x20 DUP3 ADD SWAP1 POP SWAP2 SWAP1 POP JUMP JUMPDEST PUSH1 0x0 PUSH1 0x20 DUP3 ADD SWAP1 POP DUP2 DUP2 SUB PUSH1 0x0 DUP4 ADD MSTORE PUSH2 0x333C DUP2 PUSH2 0x3300 JUMP JUMPDEST SWAP1 POP SWAP2 SWAP1 POP JUMP JUMPDEST PUSH32 0x494E53554646494349454E545F42000000000000000000000000000000000000 PUSH1 0x0 DUP3 ADD MSTORE POP JUMP JUMPDEST PUSH1 0x0 PUSH2 0x3379 PUSH1 0xE DUP4 PUSH2 0x2700 JUMP JUMPDEST SWAP2 POP PUSH2 0x3384 DUP3 PUSH2 0x3343 JUMP JUMPDEST PUSH1 0x20 DUP3 ADD SWAP1 POP SWAP2 SWAP1 POP JUMP JUMPDEST PUSH1 0x0 PUSH1 0x20 DUP3 ADD SWAP1 POP DUP2 DUP2 SUB PUSH1 0x0 DUP4 ADD MSTORE PUSH2 0x33A8 DUP2 PUSH2 0x336C JUMP JUMPDEST SWAP1 POP SWAP2 SWAP1 POP JUMP JUMPDEST PUSH32 0x4558434553534956455F494E5055540000000000000000000000000000000000 PUSH1 0x0 DUP3 ADD MSTORE POP JUMP JUMPDEST PUSH1 0x0 PUSH2 0x33E5 PUSH1 0xF DUP4 PUSH2 0x2700 JUMP JUMPDEST SWAP2 POP PUSH2 0x33F0 DUP3 PUSH2 0x33AF JUMP JUMPDEST PUSH1 0x20 DUP3 ADD SWAP1 POP SWAP2 SWAP1 POP JUMP JUMPDEST PUSH1 0x0 PUSH1 0x20 DUP3 ADD SWAP1 POP DUP2 DUP2 SUB PUSH1 0x0 DUP4 ADD MSTORE PUSH2 0x3414 DUP2 PUSH2 0x33D8 JUMP JUMPDEST SWAP1 POP SWAP2 SWAP1 POP JUMP JUMPDEST PUSH1 0x0 PUSH1 0x60 DUP3 ADD SWAP1 POP PUSH2 0x3430 PUSH1 0x0 DUP4 ADD DUP7 PUSH2 0x287B JUMP JUMPDEST PUSH2 0x343D PUSH1 0x20 DUP4 ADD DUP6 PUSH2 0x26CB JUMP JUMPDEST PUSH2 0x344A PUSH1 0x40 DUP4 ADD DUP5 PUSH2 0x26CB JUMP JUMPDEST SWAP5 SWAP4 POP POP POP POP JUMP JUMPDEST PUSH32 0x494E53554646494349454E545F414D5400000000000000000000000000000000 PUSH1 0x0 DUP3 ADD MSTORE POP JUMP JUMPDEST PUSH1 0x0 PUSH2 0x3488 PUSH1 0x10 DUP4 PUSH2 0x2700 JUMP JUMPDEST SWAP2 POP PUSH2 0x3493 DUP3 PUSH2 0x3452 JUMP JUMPDEST PUSH1 0x20 DUP3 ADD SWAP1 POP SWAP2 SWAP1 POP JUMP JUMPDEST PUSH1 0x0 PUSH1 0x20 DUP3 ADD SWAP1 POP DUP2 DUP2 SUB PUSH1 0x0 DUP4 ADD MSTORE PUSH2 0x34B7 DUP2 PUSH2 0x347B JUMP JUMPDEST SWAP1 POP SWAP2 SWAP1 POP JUMP INVALID LOG2 PUSH5 0x6970667358 0x22 SLT KECCAK256 0xE4 0xCD 0xA9 0xD7 PUSH16 0x6A2D5C37D16A90B1F5D5090FB85C7561 PUSH18 0x7B064B6CFF320DB1316564736F6C63430008 SHR STOP CALLER "
        },
        "methodIdentifiers": {
          "addLiquidity(address,address,uint256,uint256,uint256,uint256,address,uint256)": "e8e33700",
          "allowance(address,address)": "dd62ed3e",
          "approve(address,uint256)": "095ea7b3",
          "balanceOf(address)": "70a08231",
          "decimals()": "313ce567",
          "getAmountOut(uint256,uint256,uint256)": "054d50d4",
          "getPrice(address,address)": "ac41865a",
          "getReserves(address,address)": "d52bb6f4",
          "name()": "06fdde03",
          "removeLiquidity(address,address,uint256,uint256,uint256,address,uint256)": "baa2abde",
          "swapExactTokensForTokens(uint256,uint256,address[],address,uint256)": "38ed1739",
          "symbol()": "95d89b41",
          "tokenA()": "0fc63d10",
          "tokenB()": "5f64b55b",
          "totalSupply()": "18160ddd",
          "transfer(address,uint256)": "a9059cbb",
          "transferFrom(address,address,uint256)": "23b872dd"
        }
      }
    }
  }
}